{"contracts/PatientMedicalRecordSystem.sol":{"PatientMedicalRecordSystem":{"abi":[{"inputs":[],"stateMutability":"nonpayable","type":"constructor"},{"inputs":[],"name":"PatientMedicalRecords__NotDoctor","type":"error"},{"inputs":[],"name":"PatientMedicalRecords__NotOwner","type":"error"},{"inputs":[],"name":"PatientMedicalRecords__NotPatient","type":"error"},{"anonymous":false,"inputs":[{"indexed":true,"internalType":"address","name":"doctorAddress","type":"address"},{"indexed":false,"internalType":"string","name":"name","type":"string"},{"indexed":false,"internalType":"string","name":"doctorRegistrationId","type":"string"},{"indexed":true,"internalType":"uint256","name":"dateOfRegistration","type":"uint256"},{"indexed":false,"internalType":"string","name":"specialization","type":"string"},{"indexed":true,"internalType":"address","name":"hospitalAddress","type":"address"}],"name":"AddedDoctor","type":"event"},{"anonymous":false,"inputs":[{"indexed":true,"internalType":"address","name":"hospitalAddress","type":"address"},{"indexed":false,"internalType":"string","name":"name","type":"string"},{"indexed":false,"internalType":"string","name":"hospitalRegistrationId","type":"string"},{"indexed":true,"internalType":"uint256","name":"dateOfRegistration","type":"uint256"},{"indexed":false,"internalType":"string","name":"email","type":"string"},{"indexed":false,"internalType":"string","name":"phoneNumber","type":"string"}],"name":"AddedHospital","type":"event"},{"anonymous":false,"inputs":[{"indexed":true,"internalType":"address","name":"patientAddress","type":"address"},{"indexed":false,"internalType":"string","name":"name","type":"string"},{"indexed":false,"internalType":"string[]","name":"chronicHash","type":"string[]"},{"indexed":true,"internalType":"uint256","name":"dob","type":"uint256"},{"indexed":false,"internalType":"string","name":"bloodGroup","type":"string"},{"indexed":true,"internalType":"uint256","name":"dateOfRegistration","type":"uint256"},{"indexed":false,"internalType":"string","name":"publicKey","type":"string"},{"indexed":false,"internalType":"string[]","name":"vaccinationHash","type":"string[]"},{"indexed":false,"internalType":"string","name":"phoneNumber","type":"string"},{"indexed":false,"internalType":"string[]","name":"accidentHash","type":"string[]"},{"indexed":false,"internalType":"string[]","name":"acuteHash","type":"string[]"}],"name":"AddedPatient","type":"event"},{"anonymous":false,"inputs":[{"indexed":true,"internalType":"address","name":"patientAddress","type":"address"},{"indexed":false,"internalType":"string","name":"publicKey","type":"string"}],"name":"AddedPublicKey","type":"event"},{"inputs":[{"internalType":"address","name":"_doctorAddress","type":"address"},{"internalType":"string","name":"_name","type":"string"},{"internalType":"string","name":"_doctorRegistrationId","type":"string"},{"internalType":"uint256","name":"_dateOfRegistration","type":"uint256"},{"internalType":"string","name":"_specialization","type":"string"},{"internalType":"address","name":"_hospitalAddress","type":"address"}],"name":"addDoctorDetails","outputs":[],"stateMutability":"nonpayable","type":"function"},{"inputs":[{"internalType":"address","name":"_hospitalAddress","type":"address"},{"internalType":"string","name":"_name","type":"string"},{"internalType":"string","name":"_hospitalRegistrationId","type":"string"},{"internalType":"string","name":"_email","type":"string"},{"internalType":"string","name":"_phoneNumber","type":"string"}],"name":"addHospitalDetails","outputs":[],"stateMutability":"nonpayable","type":"function"},{"inputs":[{"internalType":"address","name":"_patientAddress","type":"address"},{"internalType":"uint16","name":"_category","type":"uint16"},{"internalType":"string","name":"_IpfsHash","type":"string"}],"name":"addPatientDetails","outputs":[],"stateMutability":"nonpayable","type":"function"},{"inputs":[{"internalType":"address","name":"_doctorAddress","type":"address"}],"name":"getDoctorDetails","outputs":[{"internalType":"string","name":"","type":"string"},{"internalType":"string","name":"","type":"string"},{"internalType":"string","name":"","type":"string"},{"internalType":"address","name":"","type":"address"}],"stateMutability":"view","type":"function"},{"inputs":[{"internalType":"address","name":"_hospitalAddress","type":"address"}],"name":"getHospitalDetails","outputs":[{"internalType":"string","name":"","type":"string"},{"internalType":"string","name":"","type":"string"},{"internalType":"string","name":"","type":"string"}],"stateMutability":"view","type":"function"},{"inputs":[],"name":"getMyDetails","outputs":[{"components":[{"internalType":"string","name":"name","type":"string"},{"internalType":"address","name":"patientAddress","type":"address"},{"internalType":"uint256","name":"dob","type":"uint256"},{"internalType":"string","name":"phoneNumber","type":"string"},{"internalType":"string","name":"bloodGroup","type":"string"},{"internalType":"string","name":"publicKey","type":"string"},{"internalType":"uint256","name":"dateOfRegistration","type":"uint256"},{"internalType":"string[]","name":"vaccinationHash","type":"string[]"},{"internalType":"string[]","name":"accidentHash","type":"string[]"},{"internalType":"string[]","name":"chronicHash","type":"string[]"},{"internalType":"string[]","name":"acuteHash","type":"string[]"}],"internalType":"struct PatientType.Patient","name":"","type":"tuple"}],"stateMutability":"view","type":"function"},{"inputs":[],"name":"getOwner","outputs":[{"internalType":"address","name":"","type":"address"}],"stateMutability":"view","type":"function"},{"inputs":[{"internalType":"address","name":"_patientAddress","type":"address"}],"name":"getPatientDetails","outputs":[{"internalType":"string","name":"","type":"string"},{"internalType":"string","name":"","type":"string"},{"internalType":"uint256","name":"","type":"uint256"}],"stateMutability":"view","type":"function"},{"inputs":[{"internalType":"address","name":"_patientAddress","type":"address"}],"name":"getPublicKey","outputs":[{"internalType":"string","name":"","type":"string"}],"stateMutability":"view","type":"function"},{"inputs":[{"internalType":"address","name":"_patientAddress","type":"address"},{"internalType":"string","name":"_name","type":"string"},{"internalType":"uint256","name":"_dob","type":"uint256"},{"internalType":"string","name":"_phoneNumber","type":"string"},{"internalType":"string","name":"_bloodGroup","type":"string"},{"internalType":"string","name":"_publicKey","type":"string"}],"name":"registerPatient","outputs":[],"stateMutability":"nonpayable","type":"function"}],"devdoc":{"kind":"dev","methods":{},"version":1},"evm":{"bytecode":{"linkReferences":{},"object":"60a060405234801561001057600080fd5b5060016000819055503373ffffffffffffffffffffffffffffffffffffffff1660808173ffffffffffffffffffffffffffffffffffffffff1660601b8152505060805160601c6137eb61007c60003960008181611b6e01528181611b94015261214801526137eb6000f3fe608060405234801561001057600080fd5b506004361061009e5760003560e01c8063893d20e811610066578063893d20e81461015b578063a8c62ea914610179578063b2d5bced14610195578063bab90dbd146101b1578063efe2ccc1146101e45761009e565b80630bb307a8146100a3578063431bbb7e146100d557806344bba6aa146100f35780637f0bbba91461010f578063857cdbb81461012b575b600080fd5b6100bd60048036038101906100b89190612c33565b610216565b6040516100cc9392919061337a565b60405180910390f35b6100dd610492565b6040516100ea91906134e6565b60405180910390f35b61010d60048036038101906101089190612e2c565b610b00565b005b61012960048036038101906101249190612f29565b61104f565b005b61014560048036038101906101409190612c33565b611a99565b60405161015291906132a2565b60405180910390f35b610163611b6a565b6040516101709190613287565b60405180910390f35b610193600480360381019061018e9190612c60565b611b92565b005b6101af60048036038101906101aa9190612d4b565b612146565b005b6101cb60048036038101906101c69190612c33565b612477565b6040516101db94939291906133c6565b60405180910390f35b6101fe60048036038101906101f99190612c33565b61275a565b60405161020d93929190613481565b60405180910390f35b6060806060600360008573ffffffffffffffffffffffffffffffffffffffff1673ffffffffffffffffffffffffffffffffffffffff168152602001908152602001600020600001600360008673ffffffffffffffffffffffffffffffffffffffff1673ffffffffffffffffffffffffffffffffffffffff168152602001908152602001600020600301600360008773ffffffffffffffffffffffffffffffffffffffff1673ffffffffffffffffffffffffffffffffffffffff1681526020019081526020016000206004018280546102ed90613661565b80601f016020809104026020016040519081016040528092919081815260200182805461031990613661565b80156103665780601f1061033b57610100808354040283529160200191610366565b820191906000526020600020905b81548152906001019060200180831161034957829003601f168201915b5050505050925081805461037990613661565b80601f01602080910402602001604051908101604052809291908181526020018280546103a590613661565b80156103f25780601f106103c7576101008083540402835291602001916103f2565b820191906000526020600020905b8154815290600101906020018083116103d557829003601f168201915b5050505050915080805461040590613661565b80601f016020809104026020016040519081016040528092919081815260200182805461043190613661565b801561047e5780601f106104535761010080835404028352916020019161047e565b820191906000526020600020905b81548152906001019060200180831161046157829003601f168201915b505050505090509250925092509193909250565b61049a61294b565b600160003373ffffffffffffffffffffffffffffffffffffffff1673ffffffffffffffffffffffffffffffffffffffff168152602001908152602001600020604051806101600160405290816000820180546104f590613661565b80601f016020809104026020016040519081016040528092919081815260200182805461052190613661565b801561056e5780601f106105435761010080835404028352916020019161056e565b820191906000526020600020905b81548152906001019060200180831161055157829003601f168201915b505050505081526020016001820160009054906101000a900473ffffffffffffffffffffffffffffffffffffffff1673ffffffffffffffffffffffffffffffffffffffff1673ffffffffffffffffffffffffffffffffffffffff168152602001600282015481526020016003820180546105e790613661565b80601f016020809104026020016040519081016040528092919081815260200182805461061390613661565b80156106605780601f1061063557610100808354040283529160200191610660565b820191906000526020600020905b81548152906001019060200180831161064357829003601f168201915b5050505050815260200160048201805461067990613661565b80601f01602080910402602001604051908101604052809291908181526020018280546106a590613661565b80156106f25780601f106106c7576101008083540402835291602001916106f2565b820191906000526020600020905b8154815290600101906020018083116106d557829003601f168201915b5050505050815260200160058201805461070b90613661565b80601f016020809104026020016040519081016040528092919081815260200182805461073790613661565b80156107845780601f1061075957610100808354040283529160200191610784565b820191906000526020600020905b81548152906001019060200180831161076757829003601f168201915b505050505081526020016006820154815260200160078201805480602002602001604051908101604052809291908181526020016000905b828210156108685783829060005260206000200180546107db90613661565b80601f016020809104026020016040519081016040528092919081815260200182805461080790613661565b80156108545780601f1061082957610100808354040283529160200191610854565b820191906000526020600020905b81548152906001019060200180831161083757829003601f168201915b5050505050815260200190600101906107bc565b50505050815260200160088201805480602002602001604051908101604052809291908181526020016000905b828210156109415783829060005260206000200180546108b490613661565b80601f01602080910402602001604051908101604052809291908181526020018280546108e090613661565b801561092d5780601f106109025761010080835404028352916020019161092d565b820191906000526020600020905b81548152906001019060200180831161091057829003601f168201915b505050505081526020019060010190610895565b50505050815260200160098201805480602002602001604051908101604052809291908181526020016000905b82821015610a1a57838290600052602060002001805461098d90613661565b80601f01602080910402602001604051908101604052809291908181526020018280546109b990613661565b8015610a065780601f106109db57610100808354040283529160200191610a06565b820191906000526020600020905b8154815290600101906020018083116109e957829003601f168201915b50505050508152602001906001019061096e565b505050508152602001600a8201805480602002602001604051908101604052809291908181526020016000905b82821015610af3578382906000526020600020018054610a6690613661565b80601f0160208091040260200160405190810160405280929190818152602001828054610a9290613661565b8015610adf5780601f10610ab457610100808354040283529160200191610adf565b820191906000526020600020905b815481529060010190602001808311610ac257829003601f168201915b505050505081526020019060010190610a47565b5050505081525050905090565b60026000541415610b46576040517f08c379a0000000000000000000000000000000000000000000000000000000008152600401610b3d906134c6565b60405180910390fd5b60026000819055508573ffffffffffffffffffffffffffffffffffffffff163373ffffffffffffffffffffffffffffffffffffffff1614610bb3576040517f8aa2af0300000000000000000000000000000000000000000000000000000000815260040160405180910390fd5b610bbb61294b565b85816000018190525086816020019073ffffffffffffffffffffffffffffffffffffffff16908173ffffffffffffffffffffffffffffffffffffffff168152505084816040018181525050838160600181905250828160800181905250428160c0018181525050818160a00181905250600067ffffffffffffffff811115610c4657610c456136f3565b5b604051908082528060200260200182016040528015610c7957816020015b6060815260200190600190039081610c645790505b508160e00181905250600067ffffffffffffffff811115610c9d57610c9c6136f3565b5b604051908082528060200260200182016040528015610cd057816020015b6060815260200190600190039081610cbb5790505b50816101000181905250600067ffffffffffffffff811115610cf557610cf46136f3565b5b604051908082528060200260200182016040528015610d2857816020015b6060815260200190600190039081610d135790505b50816101200181905250600067ffffffffffffffff811115610d4d57610d4c6136f3565b5b604051908082528060200260200182016040528015610d8057816020015b6060815260200190600190039081610d6b5790505b5081610140018190525080600160008973ffffffffffffffffffffffffffffffffffffffff1673ffffffffffffffffffffffffffffffffffffffff1681526020019081526020016000206000820151816000019080519060200190610de69291906129bb565b5060208201518160010160006101000a81548173ffffffffffffffffffffffffffffffffffffffff021916908373ffffffffffffffffffffffffffffffffffffffff160217905550604082015181600201556060820151816003019080519060200190610e549291906129bb565b506080820151816004019080519060200190610e719291906129bb565b5060a0820151816005019080519060200190610e8e9291906129bb565b5060c0820151816006015560e0820151816007019080519060200190610eb5929190612a41565b50610100820151816008019080519060200190610ed3929190612a41565b50610120820151816009019080519060200190610ef1929190612a41565b5061014082015181600a019080519060200190610f0f929190612a41565b5090505081600460008973ffffffffffffffffffffffffffffffffffffffff1673ffffffffffffffffffffffffffffffffffffffff1681526020019081526020016000209080519060200190610f669291906129bb565b508673ffffffffffffffffffffffffffffffffffffffff167fab1d74e2ce3421f69d1df69474b469f3896a54f1180e167c15a2ef9057833b4f83604051610fad91906132a2565b60405180910390a28060c0015181604001518873ffffffffffffffffffffffffffffffffffffffff167fab9e5cc24a967589efa8d6741e101ac0ff65a599e9e8c58b0791ddab74ae6041846000015185610120015186608001518760a001518860e0015189606001518a61010001518b61014001516040516110369897969594939291906132c4565b60405180910390a4506001600081905550505050505050565b338073ffffffffffffffffffffffffffffffffffffffff16600260008373ffffffffffffffffffffffffffffffffffffffff1673ffffffffffffffffffffffffffffffffffffffff16815260200190815260200160002060000160009054906101000a900473ffffffffffffffffffffffffffffffffffffffff1673ffffffffffffffffffffffffffffffffffffffff1614611117576040517fb2c3ad9900000000000000000000000000000000000000000000000000000000815260040160405180910390fd5b6002600054141561115d576040517f08c379a0000000000000000000000000000000000000000000000000000000008152600401611154906134c6565b60405180910390fd5b600260008190555060008361ffff1614156111f357600160008573ffffffffffffffffffffffffffffffffffffffff1673ffffffffffffffffffffffffffffffffffffffff168152602001908152602001600020600701829080600181540180825580915050600190039060005260206000200160009091909190915090805190602001906111ed9291906129bb565b5061139c565b60018361ffff16141561128157600160008573ffffffffffffffffffffffffffffffffffffffff1673ffffffffffffffffffffffffffffffffffffffff1681526020019081526020016000206008018290806001815401808255809150506001900390600052602060002001600090919091909150908051906020019061127b9291906129bb565b5061139b565b60028361ffff16141561130f57600160008573ffffffffffffffffffffffffffffffffffffffff1673ffffffffffffffffffffffffffffffffffffffff168152602001908152602001600020600901829080600181540180825580915050600190039060005260206000200160009091909190915090805190602001906113099291906129bb565b5061139a565b60038361ffff16141561139957600160008573ffffffffffffffffffffffffffffffffffffffff1673ffffffffffffffffffffffffffffffffffffffff168152602001908152602001600020600a01829080600181540180825580915050600190039060005260206000200160009091909190915090805190602001906113979291906129bb565b505b5b5b5b6000600160008673ffffffffffffffffffffffffffffffffffffffff1673ffffffffffffffffffffffffffffffffffffffff168152602001908152602001600020604051806101600160405290816000820180546113f990613661565b80601f016020809104026020016040519081016040528092919081815260200182805461142590613661565b80156114725780601f1061144757610100808354040283529160200191611472565b820191906000526020600020905b81548152906001019060200180831161145557829003601f168201915b505050505081526020016001820160009054906101000a900473ffffffffffffffffffffffffffffffffffffffff1673ffffffffffffffffffffffffffffffffffffffff1673ffffffffffffffffffffffffffffffffffffffff168152602001600282015481526020016003820180546114eb90613661565b80601f016020809104026020016040519081016040528092919081815260200182805461151790613661565b80156115645780601f1061153957610100808354040283529160200191611564565b820191906000526020600020905b81548152906001019060200180831161154757829003601f168201915b5050505050815260200160048201805461157d90613661565b80601f01602080910402602001604051908101604052809291908181526020018280546115a990613661565b80156115f65780601f106115cb576101008083540402835291602001916115f6565b820191906000526020600020905b8154815290600101906020018083116115d957829003601f168201915b5050505050815260200160058201805461160f90613661565b80601f016020809104026020016040519081016040528092919081815260200182805461163b90613661565b80156116885780601f1061165d57610100808354040283529160200191611688565b820191906000526020600020905b81548152906001019060200180831161166b57829003601f168201915b505050505081526020016006820154815260200160078201805480602002602001604051908101604052809291908181526020016000905b8282101561176c5783829060005260206000200180546116df90613661565b80601f016020809104026020016040519081016040528092919081815260200182805461170b90613661565b80156117585780601f1061172d57610100808354040283529160200191611758565b820191906000526020600020905b81548152906001019060200180831161173b57829003601f168201915b5050505050815260200190600101906116c0565b50505050815260200160088201805480602002602001604051908101604052809291908181526020016000905b828210156118455783829060005260206000200180546117b890613661565b80601f01602080910402602001604051908101604052809291908181526020018280546117e490613661565b80156118315780601f1061180657610100808354040283529160200191611831565b820191906000526020600020905b81548152906001019060200180831161181457829003601f168201915b505050505081526020019060010190611799565b50505050815260200160098201805480602002602001604051908101604052809291908181526020016000905b8282101561191e57838290600052602060002001805461189190613661565b80601f01602080910402602001604051908101604052809291908181526020018280546118bd90613661565b801561190a5780601f106118df5761010080835404028352916020019161190a565b820191906000526020600020905b8154815290600101906020018083116118ed57829003601f168201915b505050505081526020019060010190611872565b505050508152602001600a8201805480602002602001604051908101604052809291908181526020016000905b828210156119f757838290600052602060002001805461196a90613661565b80601f016020809104026020016040519081016040528092919081815260200182805461199690613661565b80156119e35780601f106119b8576101008083540402835291602001916119e3565b820191906000526020600020905b8154815290600101906020018083116119c657829003601f168201915b50505050508152602001906001019061194b565b505050508152505090508060c0015181604001518673ffffffffffffffffffffffffffffffffffffffff167fab9e5cc24a967589efa8d6741e101ac0ff65a599e9e8c58b0791ddab74ae6041846000015185610120015186608001518760a001518860e0015189606001518a61010001518b6101400151604051611a829897969594939291906132c4565b60405180910390a450600160008190555050505050565b6060600460008373ffffffffffffffffffffffffffffffffffffffff1673ffffffffffffffffffffffffffffffffffffffff1681526020019081526020016000208054611ae590613661565b80601f0160208091040260200160405190810160405280929190818152602001828054611b1190613661565b8015611b5e5780601f10611b3357610100808354040283529160200191611b5e565b820191906000526020600020905b815481529060010190602001808311611b4157829003601f168201915b50505050509050919050565b60007f0000000000000000000000000000000000000000000000000000000000000000905090565b7f000000000000000000000000000000000000000000000000000000000000000073ffffffffffffffffffffffffffffffffffffffff163373ffffffffffffffffffffffffffffffffffffffff1614611c17576040517f67dfc9f900000000000000000000000000000000000000000000000000000000815260040160405180910390fd5b60026000541415611c5d576040517f08c379a0000000000000000000000000000000000000000000000000000000008152600401611c54906134c6565b60405180910390fd5b60026000819055506000600360008773ffffffffffffffffffffffffffffffffffffffff1673ffffffffffffffffffffffffffffffffffffffff1681526020019081526020016000206040518060c0016040529081600082018054611cc190613661565b80601f0160208091040260200160405190810160405280929190818152602001828054611ced90613661565b8015611d3a5780601f10611d0f57610100808354040283529160200191611d3a565b820191906000526020600020905b815481529060010190602001808311611d1d57829003601f168201915b505050505081526020016001820160009054906101000a900473ffffffffffffffffffffffffffffffffffffffff1673ffffffffffffffffffffffffffffffffffffffff1673ffffffffffffffffffffffffffffffffffffffff16815260200160028201548152602001600382018054611db390613661565b80601f0160208091040260200160405190810160405280929190818152602001828054611ddf90613661565b8015611e2c5780601f10611e0157610100808354040283529160200191611e2c565b820191906000526020600020905b815481529060010190602001808311611e0f57829003601f168201915b50505050508152602001600482018054611e4590613661565b80601f0160208091040260200160405190810160405280929190818152602001828054611e7190613661565b8015611ebe5780601f10611e9357610100808354040283529160200191611ebe565b820191906000526020600020905b815481529060010190602001808311611ea157829003601f168201915b50505050508152602001600582018054611ed790613661565b80601f0160208091040260200160405190810160405280929190818152602001828054611f0390613661565b8015611f505780601f10611f2557610100808354040283529160200191611f50565b820191906000526020600020905b815481529060010190602001808311611f3357829003601f168201915b505050505081525050905085816020019073ffffffffffffffffffffffffffffffffffffffff16908173ffffffffffffffffffffffffffffffffffffffff1681525050848160000181905250828160800181905250818160a001819052508381606001819052504281604001818152505080600360008873ffffffffffffffffffffffffffffffffffffffff1673ffffffffffffffffffffffffffffffffffffffff168152602001908152602001600020600082015181600001908051906020019061201d9291906129bb565b5060208201518160010160006101000a81548173ffffffffffffffffffffffffffffffffffffffff021916908373ffffffffffffffffffffffffffffffffffffffff16021790555060408201518160020155606082015181600301908051906020019061208b9291906129bb565b5060808201518160040190805190602001906120a89291906129bb565b5060a08201518160050190805190602001906120c59291906129bb565b509050508060400151816020015173ffffffffffffffffffffffffffffffffffffffff167f8328c1899ed517da68d051eba8958736a049e7df8796f024f4f6d4faa41f62a78360000151846060015185608001518660a0015160405161212e9493929190613420565b60405180910390a35060016000819055505050505050565b7f000000000000000000000000000000000000000000000000000000000000000073ffffffffffffffffffffffffffffffffffffffff163373ffffffffffffffffffffffffffffffffffffffff16146121cb576040517f67dfc9f900000000000000000000000000000000000000000000000000000000815260040160405180910390fd5b60026000541415612211576040517f08c379a0000000000000000000000000000000000000000000000000000000008152600401612208906134c6565b60405180910390fd5b6002600081905550612221612aa1565b85816020018190525084816040018190525086816000019073ffffffffffffffffffffffffffffffffffffffff16908173ffffffffffffffffffffffffffffffffffffffff168152505083816060018181525050828160800181905250818160a0019073ffffffffffffffffffffffffffffffffffffffff16908173ffffffffffffffffffffffffffffffffffffffff168152505080600260008973ffffffffffffffffffffffffffffffffffffffff1673ffffffffffffffffffffffffffffffffffffffff16815260200190815260200160002060008201518160000160006101000a81548173ffffffffffffffffffffffffffffffffffffffff021916908373ffffffffffffffffffffffffffffffffffffffff16021790555060208201518160010190805190602001906123599291906129bb565b5060408201518160020190805190602001906123769291906129bb565b5060608201518160030155608082015181600401908051906020019061239d9291906129bb565b5060a08201518160050160006101000a81548173ffffffffffffffffffffffffffffffffffffffff021916908373ffffffffffffffffffffffffffffffffffffffff1602179055509050508060a0015173ffffffffffffffffffffffffffffffffffffffff1681606001518873ffffffffffffffffffffffffffffffffffffffff167f5e18314f9ace467b668a842ba6e5f08623134bbb2695f02c54d1aab199048e4e84602001518560400151866080015160405161245e9392919061337a565b60405180910390a4506001600081905550505050505050565b60608060606000600260008673ffffffffffffffffffffffffffffffffffffffff1673ffffffffffffffffffffffffffffffffffffffff168152602001908152602001600020600101600260008773ffffffffffffffffffffffffffffffffffffffff1673ffffffffffffffffffffffffffffffffffffffff168152602001908152602001600020600401600260008873ffffffffffffffffffffffffffffffffffffffff1673ffffffffffffffffffffffffffffffffffffffff168152602001908152602001600020600201600260008973ffffffffffffffffffffffffffffffffffffffff1673ffffffffffffffffffffffffffffffffffffffff16815260200190815260200160002060050160009054906101000a900473ffffffffffffffffffffffffffffffffffffffff168380546125b390613661565b80601f01602080910402602001604051908101604052809291908181526020018280546125df90613661565b801561262c5780601f106126015761010080835404028352916020019161262c565b820191906000526020600020905b81548152906001019060200180831161260f57829003601f168201915b5050505050935082805461263f90613661565b80601f016020809104026020016040519081016040528092919081815260200182805461266b90613661565b80156126b85780601f1061268d576101008083540402835291602001916126b8565b820191906000526020600020905b81548152906001019060200180831161269b57829003601f168201915b505050505092508180546126cb90613661565b80601f01602080910402602001604051908101604052809291908181526020018280546126f790613661565b80156127445780601f1061271957610100808354040283529160200191612744565b820191906000526020600020905b81548152906001019060200180831161272757829003601f168201915b5050505050915093509350935093509193509193565b6060806000600160008573ffffffffffffffffffffffffffffffffffffffff1673ffffffffffffffffffffffffffffffffffffffff168152602001908152602001600020600001600160008673ffffffffffffffffffffffffffffffffffffffff1673ffffffffffffffffffffffffffffffffffffffff168152602001908152602001600020600501600160008773ffffffffffffffffffffffffffffffffffffffff1673ffffffffffffffffffffffffffffffffffffffff1681526020019081526020016000206006015482805461283290613661565b80601f016020809104026020016040519081016040528092919081815260200182805461285e90613661565b80156128ab5780601f10612880576101008083540402835291602001916128ab565b820191906000526020600020905b81548152906001019060200180831161288e57829003601f168201915b505050505092508180546128be90613661565b80601f01602080910402602001604051908101604052809291908181526020018280546128ea90613661565b80156129375780601f1061290c57610100808354040283529160200191612937565b820191906000526020600020905b81548152906001019060200180831161291a57829003601f168201915b505050505091509250925092509193909250565b60405180610160016040528060608152602001600073ffffffffffffffffffffffffffffffffffffffff1681526020016000815260200160608152602001606081526020016060815260200160008152602001606081526020016060815260200160608152602001606081525090565b8280546129c790613661565b90600052602060002090601f0160209004810192826129e95760008555612a30565b82601f10612a0257805160ff1916838001178555612a30565b82800160010185558215612a30579182015b82811115612a2f578251825591602001919060010190612a14565b5b509050612a3d9190612b03565b5090565b828054828255906000526020600020908101928215612a90579160200282015b82811115612a8f578251829080519060200190612a7f9291906129bb565b5091602001919060010190612a61565b5b509050612a9d9190612b20565b5090565b6040518060c00160405280600073ffffffffffffffffffffffffffffffffffffffff16815260200160608152602001606081526020016000815260200160608152602001600073ffffffffffffffffffffffffffffffffffffffff1681525090565b5b80821115612b1c576000816000905550600101612b04565b5090565b5b80821115612b405760008181612b379190612b44565b50600101612b21565b5090565b508054612b5090613661565b6000825580601f10612b625750612b81565b601f016020900490600052602060002090810190612b809190612b03565b5b50565b6000612b97612b928461352d565b613508565b905082815260208101848484011115612bb357612bb2613727565b5b612bbe84828561361f565b509392505050565b600081359050612bd581613770565b92915050565b600082601f830112612bf057612bef613722565b5b8135612c00848260208601612b84565b91505092915050565b600081359050612c1881613787565b92915050565b600081359050612c2d8161379e565b92915050565b600060208284031215612c4957612c48613731565b5b6000612c5784828501612bc6565b91505092915050565b600080600080600060a08688031215612c7c57612c7b613731565b5b6000612c8a88828901612bc6565b955050602086013567ffffffffffffffff811115612cab57612caa61372c565b5b612cb788828901612bdb565b945050604086013567ffffffffffffffff811115612cd857612cd761372c565b5b612ce488828901612bdb565b935050606086013567ffffffffffffffff811115612d0557612d0461372c565b5b612d1188828901612bdb565b925050608086013567ffffffffffffffff811115612d3257612d3161372c565b5b612d3e88828901612bdb565b9150509295509295909350565b60008060008060008060c08789031215612d6857612d67613731565b5b6000612d7689828a01612bc6565b965050602087013567ffffffffffffffff811115612d9757612d9661372c565b5b612da389828a01612bdb565b955050604087013567ffffffffffffffff811115612dc457612dc361372c565b5b612dd089828a01612bdb565b9450506060612de189828a01612c1e565b935050608087013567ffffffffffffffff811115612e0257612e0161372c565b5b612e0e89828a01612bdb565b92505060a0612e1f89828a01612bc6565b9150509295509295509295565b60008060008060008060c08789031215612e4957612e48613731565b5b6000612e5789828a01612bc6565b965050602087013567ffffffffffffffff811115612e7857612e7761372c565b5b612e8489828a01612bdb565b9550506040612e9589828a01612c1e565b945050606087013567ffffffffffffffff811115612eb657612eb561372c565b5b612ec289828a01612bdb565b935050608087013567ffffffffffffffff811115612ee357612ee261372c565b5b612eef89828a01612bdb565b92505060a087013567ffffffffffffffff811115612f1057612f0f61372c565b5b612f1c89828a01612bdb565b9150509295509295509295565b600080600060608486031215612f4257612f41613731565b5b6000612f5086828701612bc6565b9350506020612f6186828701612c09565b925050604084013567ffffffffffffffff811115612f8257612f8161372c565b5b612f8e86828701612bdb565b9150509250925092565b6000612fa483836130b4565b905092915050565b612fb5816135d5565b82525050565b612fc4816135d5565b82525050565b6000612fd58261356e565b612fdf8185613591565b935083602082028501612ff18561355e565b8060005b8581101561302d578484038952815161300e8582612f98565b945061301983613584565b925060208a01995050600181019050612ff5565b50829750879550505050505092915050565b600061304a8261356e565b61305481856135a2565b9350836020820285016130668561355e565b8060005b858110156130a257848403895281516130838582612f98565b945061308e83613584565b925060208a0199505060018101905061306a565b50829750879550505050505092915050565b60006130bf82613579565b6130c981856135b3565b93506130d981856020860161362e565b6130e281613736565b840191505092915050565b60006130f882613579565b61310281856135c4565b935061311281856020860161362e565b61311b81613736565b840191505092915050565b6000613133601f836135c4565b915061313e82613747565b602082019050919050565b600061016083016000830151848203600086015261316782826130b4565b915050602083015161317c6020860182612fac565b50604083015161318f6040860182613269565b50606083015184820360608601526131a782826130b4565b915050608083015184820360808601526131c182826130b4565b91505060a083015184820360a08601526131db82826130b4565b91505060c08301516131f060c0860182613269565b5060e083015184820360e08601526132088282612fca565b9150506101008301518482036101008601526132248282612fca565b9150506101208301518482036101208601526132408282612fca565b91505061014083015184820361014086015261325c8282612fca565b9150508091505092915050565b61327281613615565b82525050565b61328181613615565b82525050565b600060208201905061329c6000830184612fbb565b92915050565b600060208201905081810360008301526132bc81846130ed565b905092915050565b60006101008201905081810360008301526132df818b6130ed565b905081810360208301526132f3818a61303f565b9050818103604083015261330781896130ed565b9050818103606083015261331b81886130ed565b9050818103608083015261332f818761303f565b905081810360a083015261334381866130ed565b905081810360c0830152613357818561303f565b905081810360e083015261336b818461303f565b90509998505050505050505050565b6000606082019050818103600083015261339481866130ed565b905081810360208301526133a881856130ed565b905081810360408301526133bc81846130ed565b9050949350505050565b600060808201905081810360008301526133e081876130ed565b905081810360208301526133f481866130ed565b9050818103604083015261340881856130ed565b90506134176060830184612fbb565b95945050505050565b6000608082019050818103600083015261343a81876130ed565b9050818103602083015261344e81866130ed565b9050818103604083015261346281856130ed565b9050818103606083015261347681846130ed565b905095945050505050565b6000606082019050818103600083015261349b81866130ed565b905081810360208301526134af81856130ed565b90506134be6040830184613278565b949350505050565b600060208201905081810360008301526134df81613126565b9050919050565b600060208201905081810360008301526135008184613149565b905092915050565b6000613512613523565b905061351e8282613693565b919050565b6000604051905090565b600067ffffffffffffffff821115613548576135476136f3565b5b61355182613736565b9050602081019050919050565b6000819050602082019050919050565b600081519050919050565b600081519050919050565b6000602082019050919050565b600082825260208201905092915050565b600082825260208201905092915050565b600082825260208201905092915050565b600082825260208201905092915050565b60006135e0826135f5565b9050919050565b600061ffff82169050919050565b600073ffffffffffffffffffffffffffffffffffffffff82169050919050565b6000819050919050565b82818337600083830152505050565b60005b8381101561364c578082015181840152602081019050613631565b8381111561365b576000848401525b50505050565b6000600282049050600182168061367957607f821691505b6020821081141561368d5761368c6136c4565b5b50919050565b61369c82613736565b810181811067ffffffffffffffff821117156136bb576136ba6136f3565b5b80604052505050565b7f4e487b7100000000000000000000000000000000000000000000000000000000600052602260045260246000fd5b7f4e487b7100000000000000000000000000000000000000000000000000000000600052604160045260246000fd5b600080fd5b600080fd5b600080fd5b600080fd5b6000601f19601f8301169050919050565b7f5265656e7472616e637947756172643a207265656e7472616e742063616c6c00600082015250565b613779816135d5565b811461378457600080fd5b50565b613790816135e7565b811461379b57600080fd5b50565b6137a781613615565b81146137b257600080fd5b5056fea26469706673582212205233ea7ee1edfc2663c81a782180340760e945bb0d7705a5e376a326c0128def64736f6c63430008070033","opcodes":"PUSH1 0xA0 PUSH1 0x40 MSTORE CALLVALUE DUP1 ISZERO PUSH2 0x10 JUMPI PUSH1 0x0 DUP1 REVERT JUMPDEST POP PUSH1 0x1 PUSH1 0x0 DUP2 SWAP1 SSTORE POP CALLER PUSH20 0xFFFFFFFFFFFFFFFFFFFFFFFFFFFFFFFFFFFFFFFF AND PUSH1 0x80 DUP2 PUSH20 0xFFFFFFFFFFFFFFFFFFFFFFFFFFFFFFFFFFFFFFFF AND PUSH1 0x60 SHL DUP2 MSTORE POP POP PUSH1 0x80 MLOAD PUSH1 0x60 SHR PUSH2 0x37EB PUSH2 0x7C PUSH1 0x0 CODECOPY PUSH1 0x0 DUP2 DUP2 PUSH2 0x1B6E ADD MSTORE DUP2 DUP2 PUSH2 0x1B94 ADD MSTORE PUSH2 0x2148 ADD MSTORE PUSH2 0x37EB PUSH1 0x0 RETURN INVALID PUSH1 0x80 PUSH1 0x40 MSTORE CALLVALUE DUP1 ISZERO PUSH2 0x10 JUMPI PUSH1 0x0 DUP1 REVERT JUMPDEST POP PUSH1 0x4 CALLDATASIZE LT PUSH2 0x9E JUMPI PUSH1 0x0 CALLDATALOAD PUSH1 0xE0 SHR DUP1 PUSH4 0x893D20E8 GT PUSH2 0x66 JUMPI DUP1 PUSH4 0x893D20E8 EQ PUSH2 0x15B JUMPI DUP1 PUSH4 0xA8C62EA9 EQ PUSH2 0x179 JUMPI DUP1 PUSH4 0xB2D5BCED EQ PUSH2 0x195 JUMPI DUP1 PUSH4 0xBAB90DBD EQ PUSH2 0x1B1 JUMPI DUP1 PUSH4 0xEFE2CCC1 EQ PUSH2 0x1E4 JUMPI PUSH2 0x9E JUMP JUMPDEST DUP1 PUSH4 0xBB307A8 EQ PUSH2 0xA3 JUMPI DUP1 PUSH4 0x431BBB7E EQ PUSH2 0xD5 JUMPI DUP1 PUSH4 0x44BBA6AA EQ PUSH2 0xF3 JUMPI DUP1 PUSH4 0x7F0BBBA9 EQ PUSH2 0x10F JUMPI DUP1 PUSH4 0x857CDBB8 EQ PUSH2 0x12B JUMPI JUMPDEST PUSH1 0x0 DUP1 REVERT JUMPDEST PUSH2 0xBD PUSH1 0x4 DUP1 CALLDATASIZE SUB DUP2 ADD SWAP1 PUSH2 0xB8 SWAP2 SWAP1 PUSH2 0x2C33 JUMP JUMPDEST PUSH2 0x216 JUMP JUMPDEST PUSH1 0x40 MLOAD PUSH2 0xCC SWAP4 SWAP3 SWAP2 SWAP1 PUSH2 0x337A JUMP JUMPDEST PUSH1 0x40 MLOAD DUP1 SWAP2 SUB SWAP1 RETURN JUMPDEST PUSH2 0xDD PUSH2 0x492 JUMP JUMPDEST PUSH1 0x40 MLOAD PUSH2 0xEA SWAP2 SWAP1 PUSH2 0x34E6 JUMP JUMPDEST PUSH1 0x40 MLOAD DUP1 SWAP2 SUB SWAP1 RETURN JUMPDEST PUSH2 0x10D PUSH1 0x4 DUP1 CALLDATASIZE SUB DUP2 ADD SWAP1 PUSH2 0x108 SWAP2 SWAP1 PUSH2 0x2E2C JUMP JUMPDEST PUSH2 0xB00 JUMP JUMPDEST STOP JUMPDEST PUSH2 0x129 PUSH1 0x4 DUP1 CALLDATASIZE SUB DUP2 ADD SWAP1 PUSH2 0x124 SWAP2 SWAP1 PUSH2 0x2F29 JUMP JUMPDEST PUSH2 0x104F JUMP JUMPDEST STOP JUMPDEST PUSH2 0x145 PUSH1 0x4 DUP1 CALLDATASIZE SUB DUP2 ADD SWAP1 PUSH2 0x140 SWAP2 SWAP1 PUSH2 0x2C33 JUMP JUMPDEST PUSH2 0x1A99 JUMP JUMPDEST PUSH1 0x40 MLOAD PUSH2 0x152 SWAP2 SWAP1 PUSH2 0x32A2 JUMP JUMPDEST PUSH1 0x40 MLOAD DUP1 SWAP2 SUB SWAP1 RETURN JUMPDEST PUSH2 0x163 PUSH2 0x1B6A JUMP JUMPDEST PUSH1 0x40 MLOAD PUSH2 0x170 SWAP2 SWAP1 PUSH2 0x3287 JUMP JUMPDEST PUSH1 0x40 MLOAD DUP1 SWAP2 SUB SWAP1 RETURN JUMPDEST PUSH2 0x193 PUSH1 0x4 DUP1 CALLDATASIZE SUB DUP2 ADD SWAP1 PUSH2 0x18E SWAP2 SWAP1 PUSH2 0x2C60 JUMP JUMPDEST PUSH2 0x1B92 JUMP JUMPDEST STOP JUMPDEST PUSH2 0x1AF PUSH1 0x4 DUP1 CALLDATASIZE SUB DUP2 ADD SWAP1 PUSH2 0x1AA SWAP2 SWAP1 PUSH2 0x2D4B JUMP JUMPDEST PUSH2 0x2146 JUMP JUMPDEST STOP JUMPDEST PUSH2 0x1CB PUSH1 0x4 DUP1 CALLDATASIZE SUB DUP2 ADD SWAP1 PUSH2 0x1C6 SWAP2 SWAP1 PUSH2 0x2C33 JUMP JUMPDEST PUSH2 0x2477 JUMP JUMPDEST PUSH1 0x40 MLOAD PUSH2 0x1DB SWAP5 SWAP4 SWAP3 SWAP2 SWAP1 PUSH2 0x33C6 JUMP JUMPDEST PUSH1 0x40 MLOAD DUP1 SWAP2 SUB SWAP1 RETURN JUMPDEST PUSH2 0x1FE PUSH1 0x4 DUP1 CALLDATASIZE SUB DUP2 ADD SWAP1 PUSH2 0x1F9 SWAP2 SWAP1 PUSH2 0x2C33 JUMP JUMPDEST PUSH2 0x275A JUMP JUMPDEST PUSH1 0x40 MLOAD PUSH2 0x20D SWAP4 SWAP3 SWAP2 SWAP1 PUSH2 0x3481 JUMP JUMPDEST PUSH1 0x40 MLOAD DUP1 SWAP2 SUB SWAP1 RETURN JUMPDEST PUSH1 0x60 DUP1 PUSH1 0x60 PUSH1 0x3 PUSH1 0x0 DUP6 PUSH20 0xFFFFFFFFFFFFFFFFFFFFFFFFFFFFFFFFFFFFFFFF AND PUSH20 0xFFFFFFFFFFFFFFFFFFFFFFFFFFFFFFFFFFFFFFFF AND DUP2 MSTORE PUSH1 0x20 ADD SWAP1 DUP2 MSTORE PUSH1 0x20 ADD PUSH1 0x0 KECCAK256 PUSH1 0x0 ADD PUSH1 0x3 PUSH1 0x0 DUP7 PUSH20 0xFFFFFFFFFFFFFFFFFFFFFFFFFFFFFFFFFFFFFFFF AND PUSH20 0xFFFFFFFFFFFFFFFFFFFFFFFFFFFFFFFFFFFFFFFF AND DUP2 MSTORE PUSH1 0x20 ADD SWAP1 DUP2 MSTORE PUSH1 0x20 ADD PUSH1 0x0 KECCAK256 PUSH1 0x3 ADD PUSH1 0x3 PUSH1 0x0 DUP8 PUSH20 0xFFFFFFFFFFFFFFFFFFFFFFFFFFFFFFFFFFFFFFFF AND PUSH20 0xFFFFFFFFFFFFFFFFFFFFFFFFFFFFFFFFFFFFFFFF AND DUP2 MSTORE PUSH1 0x20 ADD SWAP1 DUP2 MSTORE PUSH1 0x20 ADD PUSH1 0x0 KECCAK256 PUSH1 0x4 ADD DUP3 DUP1 SLOAD PUSH2 0x2ED SWAP1 PUSH2 0x3661 JUMP JUMPDEST DUP1 PUSH1 0x1F ADD PUSH1 0x20 DUP1 SWAP2 DIV MUL PUSH1 0x20 ADD PUSH1 0x40 MLOAD SWAP1 DUP2 ADD PUSH1 0x40 MSTORE DUP1 SWAP3 SWAP2 SWAP1 DUP2 DUP2 MSTORE PUSH1 0x20 ADD DUP3 DUP1 SLOAD PUSH2 0x319 SWAP1 PUSH2 0x3661 JUMP JUMPDEST DUP1 ISZERO PUSH2 0x366 JUMPI DUP1 PUSH1 0x1F LT PUSH2 0x33B JUMPI PUSH2 0x100 DUP1 DUP4 SLOAD DIV MUL DUP4 MSTORE SWAP2 PUSH1 0x20 ADD SWAP2 PUSH2 0x366 JUMP JUMPDEST DUP3 ADD SWAP2 SWAP1 PUSH1 0x0 MSTORE PUSH1 0x20 PUSH1 0x0 KECCAK256 SWAP1 JUMPDEST DUP2 SLOAD DUP2 MSTORE SWAP1 PUSH1 0x1 ADD SWAP1 PUSH1 0x20 ADD DUP1 DUP4 GT PUSH2 0x349 JUMPI DUP3 SWAP1 SUB PUSH1 0x1F AND DUP3 ADD SWAP2 JUMPDEST POP POP POP POP POP SWAP3 POP DUP2 DUP1 SLOAD PUSH2 0x379 SWAP1 PUSH2 0x3661 JUMP JUMPDEST DUP1 PUSH1 0x1F ADD PUSH1 0x20 DUP1 SWAP2 DIV MUL PUSH1 0x20 ADD PUSH1 0x40 MLOAD SWAP1 DUP2 ADD PUSH1 0x40 MSTORE DUP1 SWAP3 SWAP2 SWAP1 DUP2 DUP2 MSTORE PUSH1 0x20 ADD DUP3 DUP1 SLOAD PUSH2 0x3A5 SWAP1 PUSH2 0x3661 JUMP JUMPDEST DUP1 ISZERO PUSH2 0x3F2 JUMPI DUP1 PUSH1 0x1F LT PUSH2 0x3C7 JUMPI PUSH2 0x100 DUP1 DUP4 SLOAD DIV MUL DUP4 MSTORE SWAP2 PUSH1 0x20 ADD SWAP2 PUSH2 0x3F2 JUMP JUMPDEST DUP3 ADD SWAP2 SWAP1 PUSH1 0x0 MSTORE PUSH1 0x20 PUSH1 0x0 KECCAK256 SWAP1 JUMPDEST DUP2 SLOAD DUP2 MSTORE SWAP1 PUSH1 0x1 ADD SWAP1 PUSH1 0x20 ADD DUP1 DUP4 GT PUSH2 0x3D5 JUMPI DUP3 SWAP1 SUB PUSH1 0x1F AND DUP3 ADD SWAP2 JUMPDEST POP POP POP POP POP SWAP2 POP DUP1 DUP1 SLOAD PUSH2 0x405 SWAP1 PUSH2 0x3661 JUMP JUMPDEST DUP1 PUSH1 0x1F ADD PUSH1 0x20 DUP1 SWAP2 DIV MUL PUSH1 0x20 ADD PUSH1 0x40 MLOAD SWAP1 DUP2 ADD PUSH1 0x40 MSTORE DUP1 SWAP3 SWAP2 SWAP1 DUP2 DUP2 MSTORE PUSH1 0x20 ADD DUP3 DUP1 SLOAD PUSH2 0x431 SWAP1 PUSH2 0x3661 JUMP JUMPDEST DUP1 ISZERO PUSH2 0x47E JUMPI DUP1 PUSH1 0x1F LT PUSH2 0x453 JUMPI PUSH2 0x100 DUP1 DUP4 SLOAD DIV MUL DUP4 MSTORE SWAP2 PUSH1 0x20 ADD SWAP2 PUSH2 0x47E JUMP JUMPDEST DUP3 ADD SWAP2 SWAP1 PUSH1 0x0 MSTORE PUSH1 0x20 PUSH1 0x0 KECCAK256 SWAP1 JUMPDEST DUP2 SLOAD DUP2 MSTORE SWAP1 PUSH1 0x1 ADD SWAP1 PUSH1 0x20 ADD DUP1 DUP4 GT PUSH2 0x461 JUMPI DUP3 SWAP1 SUB PUSH1 0x1F AND DUP3 ADD SWAP2 JUMPDEST POP POP POP POP POP SWAP1 POP SWAP3 POP SWAP3 POP SWAP3 POP SWAP2 SWAP4 SWAP1 SWAP3 POP JUMP JUMPDEST PUSH2 0x49A PUSH2 0x294B JUMP JUMPDEST PUSH1 0x1 PUSH1 0x0 CALLER PUSH20 0xFFFFFFFFFFFFFFFFFFFFFFFFFFFFFFFFFFFFFFFF AND PUSH20 0xFFFFFFFFFFFFFFFFFFFFFFFFFFFFFFFFFFFFFFFF AND DUP2 MSTORE PUSH1 0x20 ADD SWAP1 DUP2 MSTORE PUSH1 0x20 ADD PUSH1 0x0 KECCAK256 PUSH1 0x40 MLOAD DUP1 PUSH2 0x160 ADD PUSH1 0x40 MSTORE SWAP1 DUP2 PUSH1 0x0 DUP3 ADD DUP1 SLOAD PUSH2 0x4F5 SWAP1 PUSH2 0x3661 JUMP JUMPDEST DUP1 PUSH1 0x1F ADD PUSH1 0x20 DUP1 SWAP2 DIV MUL PUSH1 0x20 ADD PUSH1 0x40 MLOAD SWAP1 DUP2 ADD PUSH1 0x40 MSTORE DUP1 SWAP3 SWAP2 SWAP1 DUP2 DUP2 MSTORE PUSH1 0x20 ADD DUP3 DUP1 SLOAD PUSH2 0x521 SWAP1 PUSH2 0x3661 JUMP JUMPDEST DUP1 ISZERO PUSH2 0x56E JUMPI DUP1 PUSH1 0x1F LT PUSH2 0x543 JUMPI PUSH2 0x100 DUP1 DUP4 SLOAD DIV MUL DUP4 MSTORE SWAP2 PUSH1 0x20 ADD SWAP2 PUSH2 0x56E JUMP JUMPDEST DUP3 ADD SWAP2 SWAP1 PUSH1 0x0 MSTORE PUSH1 0x20 PUSH1 0x0 KECCAK256 SWAP1 JUMPDEST DUP2 SLOAD DUP2 MSTORE SWAP1 PUSH1 0x1 ADD SWAP1 PUSH1 0x20 ADD DUP1 DUP4 GT PUSH2 0x551 JUMPI DUP3 SWAP1 SUB PUSH1 0x1F AND DUP3 ADD SWAP2 JUMPDEST POP POP POP POP POP DUP2 MSTORE PUSH1 0x20 ADD PUSH1 0x1 DUP3 ADD PUSH1 0x0 SWAP1 SLOAD SWAP1 PUSH2 0x100 EXP SWAP1 DIV PUSH20 0xFFFFFFFFFFFFFFFFFFFFFFFFFFFFFFFFFFFFFFFF AND PUSH20 0xFFFFFFFFFFFFFFFFFFFFFFFFFFFFFFFFFFFFFFFF AND PUSH20 0xFFFFFFFFFFFFFFFFFFFFFFFFFFFFFFFFFFFFFFFF AND DUP2 MSTORE PUSH1 0x20 ADD PUSH1 0x2 DUP3 ADD SLOAD DUP2 MSTORE PUSH1 0x20 ADD PUSH1 0x3 DUP3 ADD DUP1 SLOAD PUSH2 0x5E7 SWAP1 PUSH2 0x3661 JUMP JUMPDEST DUP1 PUSH1 0x1F ADD PUSH1 0x20 DUP1 SWAP2 DIV MUL PUSH1 0x20 ADD PUSH1 0x40 MLOAD SWAP1 DUP2 ADD PUSH1 0x40 MSTORE DUP1 SWAP3 SWAP2 SWAP1 DUP2 DUP2 MSTORE PUSH1 0x20 ADD DUP3 DUP1 SLOAD PUSH2 0x613 SWAP1 PUSH2 0x3661 JUMP JUMPDEST DUP1 ISZERO PUSH2 0x660 JUMPI DUP1 PUSH1 0x1F LT PUSH2 0x635 JUMPI PUSH2 0x100 DUP1 DUP4 SLOAD DIV MUL DUP4 MSTORE SWAP2 PUSH1 0x20 ADD SWAP2 PUSH2 0x660 JUMP JUMPDEST DUP3 ADD SWAP2 SWAP1 PUSH1 0x0 MSTORE PUSH1 0x20 PUSH1 0x0 KECCAK256 SWAP1 JUMPDEST DUP2 SLOAD DUP2 MSTORE SWAP1 PUSH1 0x1 ADD SWAP1 PUSH1 0x20 ADD DUP1 DUP4 GT PUSH2 0x643 JUMPI DUP3 SWAP1 SUB PUSH1 0x1F AND DUP3 ADD SWAP2 JUMPDEST POP POP POP POP POP DUP2 MSTORE PUSH1 0x20 ADD PUSH1 0x4 DUP3 ADD DUP1 SLOAD PUSH2 0x679 SWAP1 PUSH2 0x3661 JUMP JUMPDEST DUP1 PUSH1 0x1F ADD PUSH1 0x20 DUP1 SWAP2 DIV MUL PUSH1 0x20 ADD PUSH1 0x40 MLOAD SWAP1 DUP2 ADD PUSH1 0x40 MSTORE DUP1 SWAP3 SWAP2 SWAP1 DUP2 DUP2 MSTORE PUSH1 0x20 ADD DUP3 DUP1 SLOAD PUSH2 0x6A5 SWAP1 PUSH2 0x3661 JUMP JUMPDEST DUP1 ISZERO PUSH2 0x6F2 JUMPI DUP1 PUSH1 0x1F LT PUSH2 0x6C7 JUMPI PUSH2 0x100 DUP1 DUP4 SLOAD DIV MUL DUP4 MSTORE SWAP2 PUSH1 0x20 ADD SWAP2 PUSH2 0x6F2 JUMP JUMPDEST DUP3 ADD SWAP2 SWAP1 PUSH1 0x0 MSTORE PUSH1 0x20 PUSH1 0x0 KECCAK256 SWAP1 JUMPDEST DUP2 SLOAD DUP2 MSTORE SWAP1 PUSH1 0x1 ADD SWAP1 PUSH1 0x20 ADD DUP1 DUP4 GT PUSH2 0x6D5 JUMPI DUP3 SWAP1 SUB PUSH1 0x1F AND DUP3 ADD SWAP2 JUMPDEST POP POP POP POP POP DUP2 MSTORE PUSH1 0x20 ADD PUSH1 0x5 DUP3 ADD DUP1 SLOAD PUSH2 0x70B SWAP1 PUSH2 0x3661 JUMP JUMPDEST DUP1 PUSH1 0x1F ADD PUSH1 0x20 DUP1 SWAP2 DIV MUL PUSH1 0x20 ADD PUSH1 0x40 MLOAD SWAP1 DUP2 ADD PUSH1 0x40 MSTORE DUP1 SWAP3 SWAP2 SWAP1 DUP2 DUP2 MSTORE PUSH1 0x20 ADD DUP3 DUP1 SLOAD PUSH2 0x737 SWAP1 PUSH2 0x3661 JUMP JUMPDEST DUP1 ISZERO PUSH2 0x784 JUMPI DUP1 PUSH1 0x1F LT PUSH2 0x759 JUMPI PUSH2 0x100 DUP1 DUP4 SLOAD DIV MUL DUP4 MSTORE SWAP2 PUSH1 0x20 ADD SWAP2 PUSH2 0x784 JUMP JUMPDEST DUP3 ADD SWAP2 SWAP1 PUSH1 0x0 MSTORE PUSH1 0x20 PUSH1 0x0 KECCAK256 SWAP1 JUMPDEST DUP2 SLOAD DUP2 MSTORE SWAP1 PUSH1 0x1 ADD SWAP1 PUSH1 0x20 ADD DUP1 DUP4 GT PUSH2 0x767 JUMPI DUP3 SWAP1 SUB PUSH1 0x1F AND DUP3 ADD SWAP2 JUMPDEST POP POP POP POP POP DUP2 MSTORE PUSH1 0x20 ADD PUSH1 0x6 DUP3 ADD SLOAD DUP2 MSTORE PUSH1 0x20 ADD PUSH1 0x7 DUP3 ADD DUP1 SLOAD DUP1 PUSH1 0x20 MUL PUSH1 0x20 ADD PUSH1 0x40 MLOAD SWAP1 DUP2 ADD PUSH1 0x40 MSTORE DUP1 SWAP3 SWAP2 SWAP1 DUP2 DUP2 MSTORE PUSH1 0x20 ADD PUSH1 0x0 SWAP1 JUMPDEST DUP3 DUP3 LT ISZERO PUSH2 0x868 JUMPI DUP4 DUP3 SWAP1 PUSH1 0x0 MSTORE PUSH1 0x20 PUSH1 0x0 KECCAK256 ADD DUP1 SLOAD PUSH2 0x7DB SWAP1 PUSH2 0x3661 JUMP JUMPDEST DUP1 PUSH1 0x1F ADD PUSH1 0x20 DUP1 SWAP2 DIV MUL PUSH1 0x20 ADD PUSH1 0x40 MLOAD SWAP1 DUP2 ADD PUSH1 0x40 MSTORE DUP1 SWAP3 SWAP2 SWAP1 DUP2 DUP2 MSTORE PUSH1 0x20 ADD DUP3 DUP1 SLOAD PUSH2 0x807 SWAP1 PUSH2 0x3661 JUMP JUMPDEST DUP1 ISZERO PUSH2 0x854 JUMPI DUP1 PUSH1 0x1F LT PUSH2 0x829 JUMPI PUSH2 0x100 DUP1 DUP4 SLOAD DIV MUL DUP4 MSTORE SWAP2 PUSH1 0x20 ADD SWAP2 PUSH2 0x854 JUMP JUMPDEST DUP3 ADD SWAP2 SWAP1 PUSH1 0x0 MSTORE PUSH1 0x20 PUSH1 0x0 KECCAK256 SWAP1 JUMPDEST DUP2 SLOAD DUP2 MSTORE SWAP1 PUSH1 0x1 ADD SWAP1 PUSH1 0x20 ADD DUP1 DUP4 GT PUSH2 0x837 JUMPI DUP3 SWAP1 SUB PUSH1 0x1F AND DUP3 ADD SWAP2 JUMPDEST POP POP POP POP POP DUP2 MSTORE PUSH1 0x20 ADD SWAP1 PUSH1 0x1 ADD SWAP1 PUSH2 0x7BC JUMP JUMPDEST POP POP POP POP DUP2 MSTORE PUSH1 0x20 ADD PUSH1 0x8 DUP3 ADD DUP1 SLOAD DUP1 PUSH1 0x20 MUL PUSH1 0x20 ADD PUSH1 0x40 MLOAD SWAP1 DUP2 ADD PUSH1 0x40 MSTORE DUP1 SWAP3 SWAP2 SWAP1 DUP2 DUP2 MSTORE PUSH1 0x20 ADD PUSH1 0x0 SWAP1 JUMPDEST DUP3 DUP3 LT ISZERO PUSH2 0x941 JUMPI DUP4 DUP3 SWAP1 PUSH1 0x0 MSTORE PUSH1 0x20 PUSH1 0x0 KECCAK256 ADD DUP1 SLOAD PUSH2 0x8B4 SWAP1 PUSH2 0x3661 JUMP JUMPDEST DUP1 PUSH1 0x1F ADD PUSH1 0x20 DUP1 SWAP2 DIV MUL PUSH1 0x20 ADD PUSH1 0x40 MLOAD SWAP1 DUP2 ADD PUSH1 0x40 MSTORE DUP1 SWAP3 SWAP2 SWAP1 DUP2 DUP2 MSTORE PUSH1 0x20 ADD DUP3 DUP1 SLOAD PUSH2 0x8E0 SWAP1 PUSH2 0x3661 JUMP JUMPDEST DUP1 ISZERO PUSH2 0x92D JUMPI DUP1 PUSH1 0x1F LT PUSH2 0x902 JUMPI PUSH2 0x100 DUP1 DUP4 SLOAD DIV MUL DUP4 MSTORE SWAP2 PUSH1 0x20 ADD SWAP2 PUSH2 0x92D JUMP JUMPDEST DUP3 ADD SWAP2 SWAP1 PUSH1 0x0 MSTORE PUSH1 0x20 PUSH1 0x0 KECCAK256 SWAP1 JUMPDEST DUP2 SLOAD DUP2 MSTORE SWAP1 PUSH1 0x1 ADD SWAP1 PUSH1 0x20 ADD DUP1 DUP4 GT PUSH2 0x910 JUMPI DUP3 SWAP1 SUB PUSH1 0x1F AND DUP3 ADD SWAP2 JUMPDEST POP POP POP POP POP DUP2 MSTORE PUSH1 0x20 ADD SWAP1 PUSH1 0x1 ADD SWAP1 PUSH2 0x895 JUMP JUMPDEST POP POP POP POP DUP2 MSTORE PUSH1 0x20 ADD PUSH1 0x9 DUP3 ADD DUP1 SLOAD DUP1 PUSH1 0x20 MUL PUSH1 0x20 ADD PUSH1 0x40 MLOAD SWAP1 DUP2 ADD PUSH1 0x40 MSTORE DUP1 SWAP3 SWAP2 SWAP1 DUP2 DUP2 MSTORE PUSH1 0x20 ADD PUSH1 0x0 SWAP1 JUMPDEST DUP3 DUP3 LT ISZERO PUSH2 0xA1A JUMPI DUP4 DUP3 SWAP1 PUSH1 0x0 MSTORE PUSH1 0x20 PUSH1 0x0 KECCAK256 ADD DUP1 SLOAD PUSH2 0x98D SWAP1 PUSH2 0x3661 JUMP JUMPDEST DUP1 PUSH1 0x1F ADD PUSH1 0x20 DUP1 SWAP2 DIV MUL PUSH1 0x20 ADD PUSH1 0x40 MLOAD SWAP1 DUP2 ADD PUSH1 0x40 MSTORE DUP1 SWAP3 SWAP2 SWAP1 DUP2 DUP2 MSTORE PUSH1 0x20 ADD DUP3 DUP1 SLOAD PUSH2 0x9B9 SWAP1 PUSH2 0x3661 JUMP JUMPDEST DUP1 ISZERO PUSH2 0xA06 JUMPI DUP1 PUSH1 0x1F LT PUSH2 0x9DB JUMPI PUSH2 0x100 DUP1 DUP4 SLOAD DIV MUL DUP4 MSTORE SWAP2 PUSH1 0x20 ADD SWAP2 PUSH2 0xA06 JUMP JUMPDEST DUP3 ADD SWAP2 SWAP1 PUSH1 0x0 MSTORE PUSH1 0x20 PUSH1 0x0 KECCAK256 SWAP1 JUMPDEST DUP2 SLOAD DUP2 MSTORE SWAP1 PUSH1 0x1 ADD SWAP1 PUSH1 0x20 ADD DUP1 DUP4 GT PUSH2 0x9E9 JUMPI DUP3 SWAP1 SUB PUSH1 0x1F AND DUP3 ADD SWAP2 JUMPDEST POP POP POP POP POP DUP2 MSTORE PUSH1 0x20 ADD SWAP1 PUSH1 0x1 ADD SWAP1 PUSH2 0x96E JUMP JUMPDEST POP POP POP POP DUP2 MSTORE PUSH1 0x20 ADD PUSH1 0xA DUP3 ADD DUP1 SLOAD DUP1 PUSH1 0x20 MUL PUSH1 0x20 ADD PUSH1 0x40 MLOAD SWAP1 DUP2 ADD PUSH1 0x40 MSTORE DUP1 SWAP3 SWAP2 SWAP1 DUP2 DUP2 MSTORE PUSH1 0x20 ADD PUSH1 0x0 SWAP1 JUMPDEST DUP3 DUP3 LT ISZERO PUSH2 0xAF3 JUMPI DUP4 DUP3 SWAP1 PUSH1 0x0 MSTORE PUSH1 0x20 PUSH1 0x0 KECCAK256 ADD DUP1 SLOAD PUSH2 0xA66 SWAP1 PUSH2 0x3661 JUMP JUMPDEST DUP1 PUSH1 0x1F ADD PUSH1 0x20 DUP1 SWAP2 DIV MUL PUSH1 0x20 ADD PUSH1 0x40 MLOAD SWAP1 DUP2 ADD PUSH1 0x40 MSTORE DUP1 SWAP3 SWAP2 SWAP1 DUP2 DUP2 MSTORE PUSH1 0x20 ADD DUP3 DUP1 SLOAD PUSH2 0xA92 SWAP1 PUSH2 0x3661 JUMP JUMPDEST DUP1 ISZERO PUSH2 0xADF JUMPI DUP1 PUSH1 0x1F LT PUSH2 0xAB4 JUMPI PUSH2 0x100 DUP1 DUP4 SLOAD DIV MUL DUP4 MSTORE SWAP2 PUSH1 0x20 ADD SWAP2 PUSH2 0xADF JUMP JUMPDEST DUP3 ADD SWAP2 SWAP1 PUSH1 0x0 MSTORE PUSH1 0x20 PUSH1 0x0 KECCAK256 SWAP1 JUMPDEST DUP2 SLOAD DUP2 MSTORE SWAP1 PUSH1 0x1 ADD SWAP1 PUSH1 0x20 ADD DUP1 DUP4 GT PUSH2 0xAC2 JUMPI DUP3 SWAP1 SUB PUSH1 0x1F AND DUP3 ADD SWAP2 JUMPDEST POP POP POP POP POP DUP2 MSTORE PUSH1 0x20 ADD SWAP1 PUSH1 0x1 ADD SWAP1 PUSH2 0xA47 JUMP JUMPDEST POP POP POP POP DUP2 MSTORE POP POP SWAP1 POP SWAP1 JUMP JUMPDEST PUSH1 0x2 PUSH1 0x0 SLOAD EQ ISZERO PUSH2 0xB46 JUMPI PUSH1 0x40 MLOAD PUSH32 0x8C379A000000000000000000000000000000000000000000000000000000000 DUP2 MSTORE PUSH1 0x4 ADD PUSH2 0xB3D SWAP1 PUSH2 0x34C6 JUMP JUMPDEST PUSH1 0x40 MLOAD DUP1 SWAP2 SUB SWAP1 REVERT JUMPDEST PUSH1 0x2 PUSH1 0x0 DUP2 SWAP1 SSTORE POP DUP6 PUSH20 0xFFFFFFFFFFFFFFFFFFFFFFFFFFFFFFFFFFFFFFFF AND CALLER PUSH20 0xFFFFFFFFFFFFFFFFFFFFFFFFFFFFFFFFFFFFFFFF AND EQ PUSH2 0xBB3 JUMPI PUSH1 0x40 MLOAD PUSH32 0x8AA2AF0300000000000000000000000000000000000000000000000000000000 DUP2 MSTORE PUSH1 0x4 ADD PUSH1 0x40 MLOAD DUP1 SWAP2 SUB SWAP1 REVERT JUMPDEST PUSH2 0xBBB PUSH2 0x294B JUMP JUMPDEST DUP6 DUP2 PUSH1 0x0 ADD DUP2 SWAP1 MSTORE POP DUP7 DUP2 PUSH1 0x20 ADD SWAP1 PUSH20 0xFFFFFFFFFFFFFFFFFFFFFFFFFFFFFFFFFFFFFFFF AND SWAP1 DUP2 PUSH20 0xFFFFFFFFFFFFFFFFFFFFFFFFFFFFFFFFFFFFFFFF AND DUP2 MSTORE POP POP DUP5 DUP2 PUSH1 0x40 ADD DUP2 DUP2 MSTORE POP POP DUP4 DUP2 PUSH1 0x60 ADD DUP2 SWAP1 MSTORE POP DUP3 DUP2 PUSH1 0x80 ADD DUP2 SWAP1 MSTORE POP TIMESTAMP DUP2 PUSH1 0xC0 ADD DUP2 DUP2 MSTORE POP POP DUP2 DUP2 PUSH1 0xA0 ADD DUP2 SWAP1 MSTORE POP PUSH1 0x0 PUSH8 0xFFFFFFFFFFFFFFFF DUP2 GT ISZERO PUSH2 0xC46 JUMPI PUSH2 0xC45 PUSH2 0x36F3 JUMP JUMPDEST JUMPDEST PUSH1 0x40 MLOAD SWAP1 DUP1 DUP3 MSTORE DUP1 PUSH1 0x20 MUL PUSH1 0x20 ADD DUP3 ADD PUSH1 0x40 MSTORE DUP1 ISZERO PUSH2 0xC79 JUMPI DUP2 PUSH1 0x20 ADD JUMPDEST PUSH1 0x60 DUP2 MSTORE PUSH1 0x20 ADD SWAP1 PUSH1 0x1 SWAP1 SUB SWAP1 DUP2 PUSH2 0xC64 JUMPI SWAP1 POP JUMPDEST POP DUP2 PUSH1 0xE0 ADD DUP2 SWAP1 MSTORE POP PUSH1 0x0 PUSH8 0xFFFFFFFFFFFFFFFF DUP2 GT ISZERO PUSH2 0xC9D JUMPI PUSH2 0xC9C PUSH2 0x36F3 JUMP JUMPDEST JUMPDEST PUSH1 0x40 MLOAD SWAP1 DUP1 DUP3 MSTORE DUP1 PUSH1 0x20 MUL PUSH1 0x20 ADD DUP3 ADD PUSH1 0x40 MSTORE DUP1 ISZERO PUSH2 0xCD0 JUMPI DUP2 PUSH1 0x20 ADD JUMPDEST PUSH1 0x60 DUP2 MSTORE PUSH1 0x20 ADD SWAP1 PUSH1 0x1 SWAP1 SUB SWAP1 DUP2 PUSH2 0xCBB JUMPI SWAP1 POP JUMPDEST POP DUP2 PUSH2 0x100 ADD DUP2 SWAP1 MSTORE POP PUSH1 0x0 PUSH8 0xFFFFFFFFFFFFFFFF DUP2 GT ISZERO PUSH2 0xCF5 JUMPI PUSH2 0xCF4 PUSH2 0x36F3 JUMP JUMPDEST JUMPDEST PUSH1 0x40 MLOAD SWAP1 DUP1 DUP3 MSTORE DUP1 PUSH1 0x20 MUL PUSH1 0x20 ADD DUP3 ADD PUSH1 0x40 MSTORE DUP1 ISZERO PUSH2 0xD28 JUMPI DUP2 PUSH1 0x20 ADD JUMPDEST PUSH1 0x60 DUP2 MSTORE PUSH1 0x20 ADD SWAP1 PUSH1 0x1 SWAP1 SUB SWAP1 DUP2 PUSH2 0xD13 JUMPI SWAP1 POP JUMPDEST POP DUP2 PUSH2 0x120 ADD DUP2 SWAP1 MSTORE POP PUSH1 0x0 PUSH8 0xFFFFFFFFFFFFFFFF DUP2 GT ISZERO PUSH2 0xD4D JUMPI PUSH2 0xD4C PUSH2 0x36F3 JUMP JUMPDEST JUMPDEST PUSH1 0x40 MLOAD SWAP1 DUP1 DUP3 MSTORE DUP1 PUSH1 0x20 MUL PUSH1 0x20 ADD DUP3 ADD PUSH1 0x40 MSTORE DUP1 ISZERO PUSH2 0xD80 JUMPI DUP2 PUSH1 0x20 ADD JUMPDEST PUSH1 0x60 DUP2 MSTORE PUSH1 0x20 ADD SWAP1 PUSH1 0x1 SWAP1 SUB SWAP1 DUP2 PUSH2 0xD6B JUMPI SWAP1 POP JUMPDEST POP DUP2 PUSH2 0x140 ADD DUP2 SWAP1 MSTORE POP DUP1 PUSH1 0x1 PUSH1 0x0 DUP10 PUSH20 0xFFFFFFFFFFFFFFFFFFFFFFFFFFFFFFFFFFFFFFFF AND PUSH20 0xFFFFFFFFFFFFFFFFFFFFFFFFFFFFFFFFFFFFFFFF AND DUP2 MSTORE PUSH1 0x20 ADD SWAP1 DUP2 MSTORE PUSH1 0x20 ADD PUSH1 0x0 KECCAK256 PUSH1 0x0 DUP3 ADD MLOAD DUP2 PUSH1 0x0 ADD SWAP1 DUP1 MLOAD SWAP1 PUSH1 0x20 ADD SWAP1 PUSH2 0xDE6 SWAP3 SWAP2 SWAP1 PUSH2 0x29BB JUMP JUMPDEST POP PUSH1 0x20 DUP3 ADD MLOAD DUP2 PUSH1 0x1 ADD PUSH1 0x0 PUSH2 0x100 EXP DUP2 SLOAD DUP2 PUSH20 0xFFFFFFFFFFFFFFFFFFFFFFFFFFFFFFFFFFFFFFFF MUL NOT AND SWAP1 DUP4 PUSH20 0xFFFFFFFFFFFFFFFFFFFFFFFFFFFFFFFFFFFFFFFF AND MUL OR SWAP1 SSTORE POP PUSH1 0x40 DUP3 ADD MLOAD DUP2 PUSH1 0x2 ADD SSTORE PUSH1 0x60 DUP3 ADD MLOAD DUP2 PUSH1 0x3 ADD SWAP1 DUP1 MLOAD SWAP1 PUSH1 0x20 ADD SWAP1 PUSH2 0xE54 SWAP3 SWAP2 SWAP1 PUSH2 0x29BB JUMP JUMPDEST POP PUSH1 0x80 DUP3 ADD MLOAD DUP2 PUSH1 0x4 ADD SWAP1 DUP1 MLOAD SWAP1 PUSH1 0x20 ADD SWAP1 PUSH2 0xE71 SWAP3 SWAP2 SWAP1 PUSH2 0x29BB JUMP JUMPDEST POP PUSH1 0xA0 DUP3 ADD MLOAD DUP2 PUSH1 0x5 ADD SWAP1 DUP1 MLOAD SWAP1 PUSH1 0x20 ADD SWAP1 PUSH2 0xE8E SWAP3 SWAP2 SWAP1 PUSH2 0x29BB JUMP JUMPDEST POP PUSH1 0xC0 DUP3 ADD MLOAD DUP2 PUSH1 0x6 ADD SSTORE PUSH1 0xE0 DUP3 ADD MLOAD DUP2 PUSH1 0x7 ADD SWAP1 DUP1 MLOAD SWAP1 PUSH1 0x20 ADD SWAP1 PUSH2 0xEB5 SWAP3 SWAP2 SWAP1 PUSH2 0x2A41 JUMP JUMPDEST POP PUSH2 0x100 DUP3 ADD MLOAD DUP2 PUSH1 0x8 ADD SWAP1 DUP1 MLOAD SWAP1 PUSH1 0x20 ADD SWAP1 PUSH2 0xED3 SWAP3 SWAP2 SWAP1 PUSH2 0x2A41 JUMP JUMPDEST POP PUSH2 0x120 DUP3 ADD MLOAD DUP2 PUSH1 0x9 ADD SWAP1 DUP1 MLOAD SWAP1 PUSH1 0x20 ADD SWAP1 PUSH2 0xEF1 SWAP3 SWAP2 SWAP1 PUSH2 0x2A41 JUMP JUMPDEST POP PUSH2 0x140 DUP3 ADD MLOAD DUP2 PUSH1 0xA ADD SWAP1 DUP1 MLOAD SWAP1 PUSH1 0x20 ADD SWAP1 PUSH2 0xF0F SWAP3 SWAP2 SWAP1 PUSH2 0x2A41 JUMP JUMPDEST POP SWAP1 POP POP DUP2 PUSH1 0x4 PUSH1 0x0 DUP10 PUSH20 0xFFFFFFFFFFFFFFFFFFFFFFFFFFFFFFFFFFFFFFFF AND PUSH20 0xFFFFFFFFFFFFFFFFFFFFFFFFFFFFFFFFFFFFFFFF AND DUP2 MSTORE PUSH1 0x20 ADD SWAP1 DUP2 MSTORE PUSH1 0x20 ADD PUSH1 0x0 KECCAK256 SWAP1 DUP1 MLOAD SWAP1 PUSH1 0x20 ADD SWAP1 PUSH2 0xF66 SWAP3 SWAP2 SWAP1 PUSH2 0x29BB JUMP JUMPDEST POP DUP7 PUSH20 0xFFFFFFFFFFFFFFFFFFFFFFFFFFFFFFFFFFFFFFFF AND PUSH32 0xAB1D74E2CE3421F69D1DF69474B469F3896A54F1180E167C15A2EF9057833B4F DUP4 PUSH1 0x40 MLOAD PUSH2 0xFAD SWAP2 SWAP1 PUSH2 0x32A2 JUMP JUMPDEST PUSH1 0x40 MLOAD DUP1 SWAP2 SUB SWAP1 LOG2 DUP1 PUSH1 0xC0 ADD MLOAD DUP2 PUSH1 0x40 ADD MLOAD DUP9 PUSH20 0xFFFFFFFFFFFFFFFFFFFFFFFFFFFFFFFFFFFFFFFF AND PUSH32 0xAB9E5CC24A967589EFA8D6741E101AC0FF65A599E9E8C58B0791DDAB74AE6041 DUP5 PUSH1 0x0 ADD MLOAD DUP6 PUSH2 0x120 ADD MLOAD DUP7 PUSH1 0x80 ADD MLOAD DUP8 PUSH1 0xA0 ADD MLOAD DUP9 PUSH1 0xE0 ADD MLOAD DUP10 PUSH1 0x60 ADD MLOAD DUP11 PUSH2 0x100 ADD MLOAD DUP12 PUSH2 0x140 ADD MLOAD PUSH1 0x40 MLOAD PUSH2 0x1036 SWAP9 SWAP8 SWAP7 SWAP6 SWAP5 SWAP4 SWAP3 SWAP2 SWAP1 PUSH2 0x32C4 JUMP JUMPDEST PUSH1 0x40 MLOAD DUP1 SWAP2 SUB SWAP1 LOG4 POP PUSH1 0x1 PUSH1 0x0 DUP2 SWAP1 SSTORE POP POP POP POP POP POP POP JUMP JUMPDEST CALLER DUP1 PUSH20 0xFFFFFFFFFFFFFFFFFFFFFFFFFFFFFFFFFFFFFFFF AND PUSH1 0x2 PUSH1 0x0 DUP4 PUSH20 0xFFFFFFFFFFFFFFFFFFFFFFFFFFFFFFFFFFFFFFFF AND PUSH20 0xFFFFFFFFFFFFFFFFFFFFFFFFFFFFFFFFFFFFFFFF AND DUP2 MSTORE PUSH1 0x20 ADD SWAP1 DUP2 MSTORE PUSH1 0x20 ADD PUSH1 0x0 KECCAK256 PUSH1 0x0 ADD PUSH1 0x0 SWAP1 SLOAD SWAP1 PUSH2 0x100 EXP SWAP1 DIV PUSH20 0xFFFFFFFFFFFFFFFFFFFFFFFFFFFFFFFFFFFFFFFF AND PUSH20 0xFFFFFFFFFFFFFFFFFFFFFFFFFFFFFFFFFFFFFFFF AND EQ PUSH2 0x1117 JUMPI PUSH1 0x40 MLOAD PUSH32 0xB2C3AD9900000000000000000000000000000000000000000000000000000000 DUP2 MSTORE PUSH1 0x4 ADD PUSH1 0x40 MLOAD DUP1 SWAP2 SUB SWAP1 REVERT JUMPDEST PUSH1 0x2 PUSH1 0x0 SLOAD EQ ISZERO PUSH2 0x115D JUMPI PUSH1 0x40 MLOAD PUSH32 0x8C379A000000000000000000000000000000000000000000000000000000000 DUP2 MSTORE PUSH1 0x4 ADD PUSH2 0x1154 SWAP1 PUSH2 0x34C6 JUMP JUMPDEST PUSH1 0x40 MLOAD DUP1 SWAP2 SUB SWAP1 REVERT JUMPDEST PUSH1 0x2 PUSH1 0x0 DUP2 SWAP1 SSTORE POP PUSH1 0x0 DUP4 PUSH2 0xFFFF AND EQ ISZERO PUSH2 0x11F3 JUMPI PUSH1 0x1 PUSH1 0x0 DUP6 PUSH20 0xFFFFFFFFFFFFFFFFFFFFFFFFFFFFFFFFFFFFFFFF AND PUSH20 0xFFFFFFFFFFFFFFFFFFFFFFFFFFFFFFFFFFFFFFFF AND DUP2 MSTORE PUSH1 0x20 ADD SWAP1 DUP2 MSTORE PUSH1 0x20 ADD PUSH1 0x0 KECCAK256 PUSH1 0x7 ADD DUP3 SWAP1 DUP1 PUSH1 0x1 DUP2 SLOAD ADD DUP1 DUP3 SSTORE DUP1 SWAP2 POP POP PUSH1 0x1 SWAP1 SUB SWAP1 PUSH1 0x0 MSTORE PUSH1 0x20 PUSH1 0x0 KECCAK256 ADD PUSH1 0x0 SWAP1 SWAP2 SWAP1 SWAP2 SWAP1 SWAP2 POP SWAP1 DUP1 MLOAD SWAP1 PUSH1 0x20 ADD SWAP1 PUSH2 0x11ED SWAP3 SWAP2 SWAP1 PUSH2 0x29BB JUMP JUMPDEST POP PUSH2 0x139C JUMP JUMPDEST PUSH1 0x1 DUP4 PUSH2 0xFFFF AND EQ ISZERO PUSH2 0x1281 JUMPI PUSH1 0x1 PUSH1 0x0 DUP6 PUSH20 0xFFFFFFFFFFFFFFFFFFFFFFFFFFFFFFFFFFFFFFFF AND PUSH20 0xFFFFFFFFFFFFFFFFFFFFFFFFFFFFFFFFFFFFFFFF AND DUP2 MSTORE PUSH1 0x20 ADD SWAP1 DUP2 MSTORE PUSH1 0x20 ADD PUSH1 0x0 KECCAK256 PUSH1 0x8 ADD DUP3 SWAP1 DUP1 PUSH1 0x1 DUP2 SLOAD ADD DUP1 DUP3 SSTORE DUP1 SWAP2 POP POP PUSH1 0x1 SWAP1 SUB SWAP1 PUSH1 0x0 MSTORE PUSH1 0x20 PUSH1 0x0 KECCAK256 ADD PUSH1 0x0 SWAP1 SWAP2 SWAP1 SWAP2 SWAP1 SWAP2 POP SWAP1 DUP1 MLOAD SWAP1 PUSH1 0x20 ADD SWAP1 PUSH2 0x127B SWAP3 SWAP2 SWAP1 PUSH2 0x29BB JUMP JUMPDEST POP PUSH2 0x139B JUMP JUMPDEST PUSH1 0x2 DUP4 PUSH2 0xFFFF AND EQ ISZERO PUSH2 0x130F JUMPI PUSH1 0x1 PUSH1 0x0 DUP6 PUSH20 0xFFFFFFFFFFFFFFFFFFFFFFFFFFFFFFFFFFFFFFFF AND PUSH20 0xFFFFFFFFFFFFFFFFFFFFFFFFFFFFFFFFFFFFFFFF AND DUP2 MSTORE PUSH1 0x20 ADD SWAP1 DUP2 MSTORE PUSH1 0x20 ADD PUSH1 0x0 KECCAK256 PUSH1 0x9 ADD DUP3 SWAP1 DUP1 PUSH1 0x1 DUP2 SLOAD ADD DUP1 DUP3 SSTORE DUP1 SWAP2 POP POP PUSH1 0x1 SWAP1 SUB SWAP1 PUSH1 0x0 MSTORE PUSH1 0x20 PUSH1 0x0 KECCAK256 ADD PUSH1 0x0 SWAP1 SWAP2 SWAP1 SWAP2 SWAP1 SWAP2 POP SWAP1 DUP1 MLOAD SWAP1 PUSH1 0x20 ADD SWAP1 PUSH2 0x1309 SWAP3 SWAP2 SWAP1 PUSH2 0x29BB JUMP JUMPDEST POP PUSH2 0x139A JUMP JUMPDEST PUSH1 0x3 DUP4 PUSH2 0xFFFF AND EQ ISZERO PUSH2 0x1399 JUMPI PUSH1 0x1 PUSH1 0x0 DUP6 PUSH20 0xFFFFFFFFFFFFFFFFFFFFFFFFFFFFFFFFFFFFFFFF AND PUSH20 0xFFFFFFFFFFFFFFFFFFFFFFFFFFFFFFFFFFFFFFFF AND DUP2 MSTORE PUSH1 0x20 ADD SWAP1 DUP2 MSTORE PUSH1 0x20 ADD PUSH1 0x0 KECCAK256 PUSH1 0xA ADD DUP3 SWAP1 DUP1 PUSH1 0x1 DUP2 SLOAD ADD DUP1 DUP3 SSTORE DUP1 SWAP2 POP POP PUSH1 0x1 SWAP1 SUB SWAP1 PUSH1 0x0 MSTORE PUSH1 0x20 PUSH1 0x0 KECCAK256 ADD PUSH1 0x0 SWAP1 SWAP2 SWAP1 SWAP2 SWAP1 SWAP2 POP SWAP1 DUP1 MLOAD SWAP1 PUSH1 0x20 ADD SWAP1 PUSH2 0x1397 SWAP3 SWAP2 SWAP1 PUSH2 0x29BB JUMP JUMPDEST POP JUMPDEST JUMPDEST JUMPDEST JUMPDEST PUSH1 0x0 PUSH1 0x1 PUSH1 0x0 DUP7 PUSH20 0xFFFFFFFFFFFFFFFFFFFFFFFFFFFFFFFFFFFFFFFF AND PUSH20 0xFFFFFFFFFFFFFFFFFFFFFFFFFFFFFFFFFFFFFFFF AND DUP2 MSTORE PUSH1 0x20 ADD SWAP1 DUP2 MSTORE PUSH1 0x20 ADD PUSH1 0x0 KECCAK256 PUSH1 0x40 MLOAD DUP1 PUSH2 0x160 ADD PUSH1 0x40 MSTORE SWAP1 DUP2 PUSH1 0x0 DUP3 ADD DUP1 SLOAD PUSH2 0x13F9 SWAP1 PUSH2 0x3661 JUMP JUMPDEST DUP1 PUSH1 0x1F ADD PUSH1 0x20 DUP1 SWAP2 DIV MUL PUSH1 0x20 ADD PUSH1 0x40 MLOAD SWAP1 DUP2 ADD PUSH1 0x40 MSTORE DUP1 SWAP3 SWAP2 SWAP1 DUP2 DUP2 MSTORE PUSH1 0x20 ADD DUP3 DUP1 SLOAD PUSH2 0x1425 SWAP1 PUSH2 0x3661 JUMP JUMPDEST DUP1 ISZERO PUSH2 0x1472 JUMPI DUP1 PUSH1 0x1F LT PUSH2 0x1447 JUMPI PUSH2 0x100 DUP1 DUP4 SLOAD DIV MUL DUP4 MSTORE SWAP2 PUSH1 0x20 ADD SWAP2 PUSH2 0x1472 JUMP JUMPDEST DUP3 ADD SWAP2 SWAP1 PUSH1 0x0 MSTORE PUSH1 0x20 PUSH1 0x0 KECCAK256 SWAP1 JUMPDEST DUP2 SLOAD DUP2 MSTORE SWAP1 PUSH1 0x1 ADD SWAP1 PUSH1 0x20 ADD DUP1 DUP4 GT PUSH2 0x1455 JUMPI DUP3 SWAP1 SUB PUSH1 0x1F AND DUP3 ADD SWAP2 JUMPDEST POP POP POP POP POP DUP2 MSTORE PUSH1 0x20 ADD PUSH1 0x1 DUP3 ADD PUSH1 0x0 SWAP1 SLOAD SWAP1 PUSH2 0x100 EXP SWAP1 DIV PUSH20 0xFFFFFFFFFFFFFFFFFFFFFFFFFFFFFFFFFFFFFFFF AND PUSH20 0xFFFFFFFFFFFFFFFFFFFFFFFFFFFFFFFFFFFFFFFF AND PUSH20 0xFFFFFFFFFFFFFFFFFFFFFFFFFFFFFFFFFFFFFFFF AND DUP2 MSTORE PUSH1 0x20 ADD PUSH1 0x2 DUP3 ADD SLOAD DUP2 MSTORE PUSH1 0x20 ADD PUSH1 0x3 DUP3 ADD DUP1 SLOAD PUSH2 0x14EB SWAP1 PUSH2 0x3661 JUMP JUMPDEST DUP1 PUSH1 0x1F ADD PUSH1 0x20 DUP1 SWAP2 DIV MUL PUSH1 0x20 ADD PUSH1 0x40 MLOAD SWAP1 DUP2 ADD PUSH1 0x40 MSTORE DUP1 SWAP3 SWAP2 SWAP1 DUP2 DUP2 MSTORE PUSH1 0x20 ADD DUP3 DUP1 SLOAD PUSH2 0x1517 SWAP1 PUSH2 0x3661 JUMP JUMPDEST DUP1 ISZERO PUSH2 0x1564 JUMPI DUP1 PUSH1 0x1F LT PUSH2 0x1539 JUMPI PUSH2 0x100 DUP1 DUP4 SLOAD DIV MUL DUP4 MSTORE SWAP2 PUSH1 0x20 ADD SWAP2 PUSH2 0x1564 JUMP JUMPDEST DUP3 ADD SWAP2 SWAP1 PUSH1 0x0 MSTORE PUSH1 0x20 PUSH1 0x0 KECCAK256 SWAP1 JUMPDEST DUP2 SLOAD DUP2 MSTORE SWAP1 PUSH1 0x1 ADD SWAP1 PUSH1 0x20 ADD DUP1 DUP4 GT PUSH2 0x1547 JUMPI DUP3 SWAP1 SUB PUSH1 0x1F AND DUP3 ADD SWAP2 JUMPDEST POP POP POP POP POP DUP2 MSTORE PUSH1 0x20 ADD PUSH1 0x4 DUP3 ADD DUP1 SLOAD PUSH2 0x157D SWAP1 PUSH2 0x3661 JUMP JUMPDEST DUP1 PUSH1 0x1F ADD PUSH1 0x20 DUP1 SWAP2 DIV MUL PUSH1 0x20 ADD PUSH1 0x40 MLOAD SWAP1 DUP2 ADD PUSH1 0x40 MSTORE DUP1 SWAP3 SWAP2 SWAP1 DUP2 DUP2 MSTORE PUSH1 0x20 ADD DUP3 DUP1 SLOAD PUSH2 0x15A9 SWAP1 PUSH2 0x3661 JUMP JUMPDEST DUP1 ISZERO PUSH2 0x15F6 JUMPI DUP1 PUSH1 0x1F LT PUSH2 0x15CB JUMPI PUSH2 0x100 DUP1 DUP4 SLOAD DIV MUL DUP4 MSTORE SWAP2 PUSH1 0x20 ADD SWAP2 PUSH2 0x15F6 JUMP JUMPDEST DUP3 ADD SWAP2 SWAP1 PUSH1 0x0 MSTORE PUSH1 0x20 PUSH1 0x0 KECCAK256 SWAP1 JUMPDEST DUP2 SLOAD DUP2 MSTORE SWAP1 PUSH1 0x1 ADD SWAP1 PUSH1 0x20 ADD DUP1 DUP4 GT PUSH2 0x15D9 JUMPI DUP3 SWAP1 SUB PUSH1 0x1F AND DUP3 ADD SWAP2 JUMPDEST POP POP POP POP POP DUP2 MSTORE PUSH1 0x20 ADD PUSH1 0x5 DUP3 ADD DUP1 SLOAD PUSH2 0x160F SWAP1 PUSH2 0x3661 JUMP JUMPDEST DUP1 PUSH1 0x1F ADD PUSH1 0x20 DUP1 SWAP2 DIV MUL PUSH1 0x20 ADD PUSH1 0x40 MLOAD SWAP1 DUP2 ADD PUSH1 0x40 MSTORE DUP1 SWAP3 SWAP2 SWAP1 DUP2 DUP2 MSTORE PUSH1 0x20 ADD DUP3 DUP1 SLOAD PUSH2 0x163B SWAP1 PUSH2 0x3661 JUMP JUMPDEST DUP1 ISZERO PUSH2 0x1688 JUMPI DUP1 PUSH1 0x1F LT PUSH2 0x165D JUMPI PUSH2 0x100 DUP1 DUP4 SLOAD DIV MUL DUP4 MSTORE SWAP2 PUSH1 0x20 ADD SWAP2 PUSH2 0x1688 JUMP JUMPDEST DUP3 ADD SWAP2 SWAP1 PUSH1 0x0 MSTORE PUSH1 0x20 PUSH1 0x0 KECCAK256 SWAP1 JUMPDEST DUP2 SLOAD DUP2 MSTORE SWAP1 PUSH1 0x1 ADD SWAP1 PUSH1 0x20 ADD DUP1 DUP4 GT PUSH2 0x166B JUMPI DUP3 SWAP1 SUB PUSH1 0x1F AND DUP3 ADD SWAP2 JUMPDEST POP POP POP POP POP DUP2 MSTORE PUSH1 0x20 ADD PUSH1 0x6 DUP3 ADD SLOAD DUP2 MSTORE PUSH1 0x20 ADD PUSH1 0x7 DUP3 ADD DUP1 SLOAD DUP1 PUSH1 0x20 MUL PUSH1 0x20 ADD PUSH1 0x40 MLOAD SWAP1 DUP2 ADD PUSH1 0x40 MSTORE DUP1 SWAP3 SWAP2 SWAP1 DUP2 DUP2 MSTORE PUSH1 0x20 ADD PUSH1 0x0 SWAP1 JUMPDEST DUP3 DUP3 LT ISZERO PUSH2 0x176C JUMPI DUP4 DUP3 SWAP1 PUSH1 0x0 MSTORE PUSH1 0x20 PUSH1 0x0 KECCAK256 ADD DUP1 SLOAD PUSH2 0x16DF SWAP1 PUSH2 0x3661 JUMP JUMPDEST DUP1 PUSH1 0x1F ADD PUSH1 0x20 DUP1 SWAP2 DIV MUL PUSH1 0x20 ADD PUSH1 0x40 MLOAD SWAP1 DUP2 ADD PUSH1 0x40 MSTORE DUP1 SWAP3 SWAP2 SWAP1 DUP2 DUP2 MSTORE PUSH1 0x20 ADD DUP3 DUP1 SLOAD PUSH2 0x170B SWAP1 PUSH2 0x3661 JUMP JUMPDEST DUP1 ISZERO PUSH2 0x1758 JUMPI DUP1 PUSH1 0x1F LT PUSH2 0x172D JUMPI PUSH2 0x100 DUP1 DUP4 SLOAD DIV MUL DUP4 MSTORE SWAP2 PUSH1 0x20 ADD SWAP2 PUSH2 0x1758 JUMP JUMPDEST DUP3 ADD SWAP2 SWAP1 PUSH1 0x0 MSTORE PUSH1 0x20 PUSH1 0x0 KECCAK256 SWAP1 JUMPDEST DUP2 SLOAD DUP2 MSTORE SWAP1 PUSH1 0x1 ADD SWAP1 PUSH1 0x20 ADD DUP1 DUP4 GT PUSH2 0x173B JUMPI DUP3 SWAP1 SUB PUSH1 0x1F AND DUP3 ADD SWAP2 JUMPDEST POP POP POP POP POP DUP2 MSTORE PUSH1 0x20 ADD SWAP1 PUSH1 0x1 ADD SWAP1 PUSH2 0x16C0 JUMP JUMPDEST POP POP POP POP DUP2 MSTORE PUSH1 0x20 ADD PUSH1 0x8 DUP3 ADD DUP1 SLOAD DUP1 PUSH1 0x20 MUL PUSH1 0x20 ADD PUSH1 0x40 MLOAD SWAP1 DUP2 ADD PUSH1 0x40 MSTORE DUP1 SWAP3 SWAP2 SWAP1 DUP2 DUP2 MSTORE PUSH1 0x20 ADD PUSH1 0x0 SWAP1 JUMPDEST DUP3 DUP3 LT ISZERO PUSH2 0x1845 JUMPI DUP4 DUP3 SWAP1 PUSH1 0x0 MSTORE PUSH1 0x20 PUSH1 0x0 KECCAK256 ADD DUP1 SLOAD PUSH2 0x17B8 SWAP1 PUSH2 0x3661 JUMP JUMPDEST DUP1 PUSH1 0x1F ADD PUSH1 0x20 DUP1 SWAP2 DIV MUL PUSH1 0x20 ADD PUSH1 0x40 MLOAD SWAP1 DUP2 ADD PUSH1 0x40 MSTORE DUP1 SWAP3 SWAP2 SWAP1 DUP2 DUP2 MSTORE PUSH1 0x20 ADD DUP3 DUP1 SLOAD PUSH2 0x17E4 SWAP1 PUSH2 0x3661 JUMP JUMPDEST DUP1 ISZERO PUSH2 0x1831 JUMPI DUP1 PUSH1 0x1F LT PUSH2 0x1806 JUMPI PUSH2 0x100 DUP1 DUP4 SLOAD DIV MUL DUP4 MSTORE SWAP2 PUSH1 0x20 ADD SWAP2 PUSH2 0x1831 JUMP JUMPDEST DUP3 ADD SWAP2 SWAP1 PUSH1 0x0 MSTORE PUSH1 0x20 PUSH1 0x0 KECCAK256 SWAP1 JUMPDEST DUP2 SLOAD DUP2 MSTORE SWAP1 PUSH1 0x1 ADD SWAP1 PUSH1 0x20 ADD DUP1 DUP4 GT PUSH2 0x1814 JUMPI DUP3 SWAP1 SUB PUSH1 0x1F AND DUP3 ADD SWAP2 JUMPDEST POP POP POP POP POP DUP2 MSTORE PUSH1 0x20 ADD SWAP1 PUSH1 0x1 ADD SWAP1 PUSH2 0x1799 JUMP JUMPDEST POP POP POP POP DUP2 MSTORE PUSH1 0x20 ADD PUSH1 0x9 DUP3 ADD DUP1 SLOAD DUP1 PUSH1 0x20 MUL PUSH1 0x20 ADD PUSH1 0x40 MLOAD SWAP1 DUP2 ADD PUSH1 0x40 MSTORE DUP1 SWAP3 SWAP2 SWAP1 DUP2 DUP2 MSTORE PUSH1 0x20 ADD PUSH1 0x0 SWAP1 JUMPDEST DUP3 DUP3 LT ISZERO PUSH2 0x191E JUMPI DUP4 DUP3 SWAP1 PUSH1 0x0 MSTORE PUSH1 0x20 PUSH1 0x0 KECCAK256 ADD DUP1 SLOAD PUSH2 0x1891 SWAP1 PUSH2 0x3661 JUMP JUMPDEST DUP1 PUSH1 0x1F ADD PUSH1 0x20 DUP1 SWAP2 DIV MUL PUSH1 0x20 ADD PUSH1 0x40 MLOAD SWAP1 DUP2 ADD PUSH1 0x40 MSTORE DUP1 SWAP3 SWAP2 SWAP1 DUP2 DUP2 MSTORE PUSH1 0x20 ADD DUP3 DUP1 SLOAD PUSH2 0x18BD SWAP1 PUSH2 0x3661 JUMP JUMPDEST DUP1 ISZERO PUSH2 0x190A JUMPI DUP1 PUSH1 0x1F LT PUSH2 0x18DF JUMPI PUSH2 0x100 DUP1 DUP4 SLOAD DIV MUL DUP4 MSTORE SWAP2 PUSH1 0x20 ADD SWAP2 PUSH2 0x190A JUMP JUMPDEST DUP3 ADD SWAP2 SWAP1 PUSH1 0x0 MSTORE PUSH1 0x20 PUSH1 0x0 KECCAK256 SWAP1 JUMPDEST DUP2 SLOAD DUP2 MSTORE SWAP1 PUSH1 0x1 ADD SWAP1 PUSH1 0x20 ADD DUP1 DUP4 GT PUSH2 0x18ED JUMPI DUP3 SWAP1 SUB PUSH1 0x1F AND DUP3 ADD SWAP2 JUMPDEST POP POP POP POP POP DUP2 MSTORE PUSH1 0x20 ADD SWAP1 PUSH1 0x1 ADD SWAP1 PUSH2 0x1872 JUMP JUMPDEST POP POP POP POP DUP2 MSTORE PUSH1 0x20 ADD PUSH1 0xA DUP3 ADD DUP1 SLOAD DUP1 PUSH1 0x20 MUL PUSH1 0x20 ADD PUSH1 0x40 MLOAD SWAP1 DUP2 ADD PUSH1 0x40 MSTORE DUP1 SWAP3 SWAP2 SWAP1 DUP2 DUP2 MSTORE PUSH1 0x20 ADD PUSH1 0x0 SWAP1 JUMPDEST DUP3 DUP3 LT ISZERO PUSH2 0x19F7 JUMPI DUP4 DUP3 SWAP1 PUSH1 0x0 MSTORE PUSH1 0x20 PUSH1 0x0 KECCAK256 ADD DUP1 SLOAD PUSH2 0x196A SWAP1 PUSH2 0x3661 JUMP JUMPDEST DUP1 PUSH1 0x1F ADD PUSH1 0x20 DUP1 SWAP2 DIV MUL PUSH1 0x20 ADD PUSH1 0x40 MLOAD SWAP1 DUP2 ADD PUSH1 0x40 MSTORE DUP1 SWAP3 SWAP2 SWAP1 DUP2 DUP2 MSTORE PUSH1 0x20 ADD DUP3 DUP1 SLOAD PUSH2 0x1996 SWAP1 PUSH2 0x3661 JUMP JUMPDEST DUP1 ISZERO PUSH2 0x19E3 JUMPI DUP1 PUSH1 0x1F LT PUSH2 0x19B8 JUMPI PUSH2 0x100 DUP1 DUP4 SLOAD DIV MUL DUP4 MSTORE SWAP2 PUSH1 0x20 ADD SWAP2 PUSH2 0x19E3 JUMP JUMPDEST DUP3 ADD SWAP2 SWAP1 PUSH1 0x0 MSTORE PUSH1 0x20 PUSH1 0x0 KECCAK256 SWAP1 JUMPDEST DUP2 SLOAD DUP2 MSTORE SWAP1 PUSH1 0x1 ADD SWAP1 PUSH1 0x20 ADD DUP1 DUP4 GT PUSH2 0x19C6 JUMPI DUP3 SWAP1 SUB PUSH1 0x1F AND DUP3 ADD SWAP2 JUMPDEST POP POP POP POP POP DUP2 MSTORE PUSH1 0x20 ADD SWAP1 PUSH1 0x1 ADD SWAP1 PUSH2 0x194B JUMP JUMPDEST POP POP POP POP DUP2 MSTORE POP POP SWAP1 POP DUP1 PUSH1 0xC0 ADD MLOAD DUP2 PUSH1 0x40 ADD MLOAD DUP7 PUSH20 0xFFFFFFFFFFFFFFFFFFFFFFFFFFFFFFFFFFFFFFFF AND PUSH32 0xAB9E5CC24A967589EFA8D6741E101AC0FF65A599E9E8C58B0791DDAB74AE6041 DUP5 PUSH1 0x0 ADD MLOAD DUP6 PUSH2 0x120 ADD MLOAD DUP7 PUSH1 0x80 ADD MLOAD DUP8 PUSH1 0xA0 ADD MLOAD DUP9 PUSH1 0xE0 ADD MLOAD DUP10 PUSH1 0x60 ADD MLOAD DUP11 PUSH2 0x100 ADD MLOAD DUP12 PUSH2 0x140 ADD MLOAD PUSH1 0x40 MLOAD PUSH2 0x1A82 SWAP9 SWAP8 SWAP7 SWAP6 SWAP5 SWAP4 SWAP3 SWAP2 SWAP1 PUSH2 0x32C4 JUMP JUMPDEST PUSH1 0x40 MLOAD DUP1 SWAP2 SUB SWAP1 LOG4 POP PUSH1 0x1 PUSH1 0x0 DUP2 SWAP1 SSTORE POP POP POP POP POP JUMP JUMPDEST PUSH1 0x60 PUSH1 0x4 PUSH1 0x0 DUP4 PUSH20 0xFFFFFFFFFFFFFFFFFFFFFFFFFFFFFFFFFFFFFFFF AND PUSH20 0xFFFFFFFFFFFFFFFFFFFFFFFFFFFFFFFFFFFFFFFF AND DUP2 MSTORE PUSH1 0x20 ADD SWAP1 DUP2 MSTORE PUSH1 0x20 ADD PUSH1 0x0 KECCAK256 DUP1 SLOAD PUSH2 0x1AE5 SWAP1 PUSH2 0x3661 JUMP JUMPDEST DUP1 PUSH1 0x1F ADD PUSH1 0x20 DUP1 SWAP2 DIV MUL PUSH1 0x20 ADD PUSH1 0x40 MLOAD SWAP1 DUP2 ADD PUSH1 0x40 MSTORE DUP1 SWAP3 SWAP2 SWAP1 DUP2 DUP2 MSTORE PUSH1 0x20 ADD DUP3 DUP1 SLOAD PUSH2 0x1B11 SWAP1 PUSH2 0x3661 JUMP JUMPDEST DUP1 ISZERO PUSH2 0x1B5E JUMPI DUP1 PUSH1 0x1F LT PUSH2 0x1B33 JUMPI PUSH2 0x100 DUP1 DUP4 SLOAD DIV MUL DUP4 MSTORE SWAP2 PUSH1 0x20 ADD SWAP2 PUSH2 0x1B5E JUMP JUMPDEST DUP3 ADD SWAP2 SWAP1 PUSH1 0x0 MSTORE PUSH1 0x20 PUSH1 0x0 KECCAK256 SWAP1 JUMPDEST DUP2 SLOAD DUP2 MSTORE SWAP1 PUSH1 0x1 ADD SWAP1 PUSH1 0x20 ADD DUP1 DUP4 GT PUSH2 0x1B41 JUMPI DUP3 SWAP1 SUB PUSH1 0x1F AND DUP3 ADD SWAP2 JUMPDEST POP POP POP POP POP SWAP1 POP SWAP2 SWAP1 POP JUMP JUMPDEST PUSH1 0x0 PUSH32 0x0 SWAP1 POP SWAP1 JUMP JUMPDEST PUSH32 0x0 PUSH20 0xFFFFFFFFFFFFFFFFFFFFFFFFFFFFFFFFFFFFFFFF AND CALLER PUSH20 0xFFFFFFFFFFFFFFFFFFFFFFFFFFFFFFFFFFFFFFFF AND EQ PUSH2 0x1C17 JUMPI PUSH1 0x40 MLOAD PUSH32 0x67DFC9F900000000000000000000000000000000000000000000000000000000 DUP2 MSTORE PUSH1 0x4 ADD PUSH1 0x40 MLOAD DUP1 SWAP2 SUB SWAP1 REVERT JUMPDEST PUSH1 0x2 PUSH1 0x0 SLOAD EQ ISZERO PUSH2 0x1C5D JUMPI PUSH1 0x40 MLOAD PUSH32 0x8C379A000000000000000000000000000000000000000000000000000000000 DUP2 MSTORE PUSH1 0x4 ADD PUSH2 0x1C54 SWAP1 PUSH2 0x34C6 JUMP JUMPDEST PUSH1 0x40 MLOAD DUP1 SWAP2 SUB SWAP1 REVERT JUMPDEST PUSH1 0x2 PUSH1 0x0 DUP2 SWAP1 SSTORE POP PUSH1 0x0 PUSH1 0x3 PUSH1 0x0 DUP8 PUSH20 0xFFFFFFFFFFFFFFFFFFFFFFFFFFFFFFFFFFFFFFFF AND PUSH20 0xFFFFFFFFFFFFFFFFFFFFFFFFFFFFFFFFFFFFFFFF AND DUP2 MSTORE PUSH1 0x20 ADD SWAP1 DUP2 MSTORE PUSH1 0x20 ADD PUSH1 0x0 KECCAK256 PUSH1 0x40 MLOAD DUP1 PUSH1 0xC0 ADD PUSH1 0x40 MSTORE SWAP1 DUP2 PUSH1 0x0 DUP3 ADD DUP1 SLOAD PUSH2 0x1CC1 SWAP1 PUSH2 0x3661 JUMP JUMPDEST DUP1 PUSH1 0x1F ADD PUSH1 0x20 DUP1 SWAP2 DIV MUL PUSH1 0x20 ADD PUSH1 0x40 MLOAD SWAP1 DUP2 ADD PUSH1 0x40 MSTORE DUP1 SWAP3 SWAP2 SWAP1 DUP2 DUP2 MSTORE PUSH1 0x20 ADD DUP3 DUP1 SLOAD PUSH2 0x1CED SWAP1 PUSH2 0x3661 JUMP JUMPDEST DUP1 ISZERO PUSH2 0x1D3A JUMPI DUP1 PUSH1 0x1F LT PUSH2 0x1D0F JUMPI PUSH2 0x100 DUP1 DUP4 SLOAD DIV MUL DUP4 MSTORE SWAP2 PUSH1 0x20 ADD SWAP2 PUSH2 0x1D3A JUMP JUMPDEST DUP3 ADD SWAP2 SWAP1 PUSH1 0x0 MSTORE PUSH1 0x20 PUSH1 0x0 KECCAK256 SWAP1 JUMPDEST DUP2 SLOAD DUP2 MSTORE SWAP1 PUSH1 0x1 ADD SWAP1 PUSH1 0x20 ADD DUP1 DUP4 GT PUSH2 0x1D1D JUMPI DUP3 SWAP1 SUB PUSH1 0x1F AND DUP3 ADD SWAP2 JUMPDEST POP POP POP POP POP DUP2 MSTORE PUSH1 0x20 ADD PUSH1 0x1 DUP3 ADD PUSH1 0x0 SWAP1 SLOAD SWAP1 PUSH2 0x100 EXP SWAP1 DIV PUSH20 0xFFFFFFFFFFFFFFFFFFFFFFFFFFFFFFFFFFFFFFFF AND PUSH20 0xFFFFFFFFFFFFFFFFFFFFFFFFFFFFFFFFFFFFFFFF AND PUSH20 0xFFFFFFFFFFFFFFFFFFFFFFFFFFFFFFFFFFFFFFFF AND DUP2 MSTORE PUSH1 0x20 ADD PUSH1 0x2 DUP3 ADD SLOAD DUP2 MSTORE PUSH1 0x20 ADD PUSH1 0x3 DUP3 ADD DUP1 SLOAD PUSH2 0x1DB3 SWAP1 PUSH2 0x3661 JUMP JUMPDEST DUP1 PUSH1 0x1F ADD PUSH1 0x20 DUP1 SWAP2 DIV MUL PUSH1 0x20 ADD PUSH1 0x40 MLOAD SWAP1 DUP2 ADD PUSH1 0x40 MSTORE DUP1 SWAP3 SWAP2 SWAP1 DUP2 DUP2 MSTORE PUSH1 0x20 ADD DUP3 DUP1 SLOAD PUSH2 0x1DDF SWAP1 PUSH2 0x3661 JUMP JUMPDEST DUP1 ISZERO PUSH2 0x1E2C JUMPI DUP1 PUSH1 0x1F LT PUSH2 0x1E01 JUMPI PUSH2 0x100 DUP1 DUP4 SLOAD DIV MUL DUP4 MSTORE SWAP2 PUSH1 0x20 ADD SWAP2 PUSH2 0x1E2C JUMP JUMPDEST DUP3 ADD SWAP2 SWAP1 PUSH1 0x0 MSTORE PUSH1 0x20 PUSH1 0x0 KECCAK256 SWAP1 JUMPDEST DUP2 SLOAD DUP2 MSTORE SWAP1 PUSH1 0x1 ADD SWAP1 PUSH1 0x20 ADD DUP1 DUP4 GT PUSH2 0x1E0F JUMPI DUP3 SWAP1 SUB PUSH1 0x1F AND DUP3 ADD SWAP2 JUMPDEST POP POP POP POP POP DUP2 MSTORE PUSH1 0x20 ADD PUSH1 0x4 DUP3 ADD DUP1 SLOAD PUSH2 0x1E45 SWAP1 PUSH2 0x3661 JUMP JUMPDEST DUP1 PUSH1 0x1F ADD PUSH1 0x20 DUP1 SWAP2 DIV MUL PUSH1 0x20 ADD PUSH1 0x40 MLOAD SWAP1 DUP2 ADD PUSH1 0x40 MSTORE DUP1 SWAP3 SWAP2 SWAP1 DUP2 DUP2 MSTORE PUSH1 0x20 ADD DUP3 DUP1 SLOAD PUSH2 0x1E71 SWAP1 PUSH2 0x3661 JUMP JUMPDEST DUP1 ISZERO PUSH2 0x1EBE JUMPI DUP1 PUSH1 0x1F LT PUSH2 0x1E93 JUMPI PUSH2 0x100 DUP1 DUP4 SLOAD DIV MUL DUP4 MSTORE SWAP2 PUSH1 0x20 ADD SWAP2 PUSH2 0x1EBE JUMP JUMPDEST DUP3 ADD SWAP2 SWAP1 PUSH1 0x0 MSTORE PUSH1 0x20 PUSH1 0x0 KECCAK256 SWAP1 JUMPDEST DUP2 SLOAD DUP2 MSTORE SWAP1 PUSH1 0x1 ADD SWAP1 PUSH1 0x20 ADD DUP1 DUP4 GT PUSH2 0x1EA1 JUMPI DUP3 SWAP1 SUB PUSH1 0x1F AND DUP3 ADD SWAP2 JUMPDEST POP POP POP POP POP DUP2 MSTORE PUSH1 0x20 ADD PUSH1 0x5 DUP3 ADD DUP1 SLOAD PUSH2 0x1ED7 SWAP1 PUSH2 0x3661 JUMP JUMPDEST DUP1 PUSH1 0x1F ADD PUSH1 0x20 DUP1 SWAP2 DIV MUL PUSH1 0x20 ADD PUSH1 0x40 MLOAD SWAP1 DUP2 ADD PUSH1 0x40 MSTORE DUP1 SWAP3 SWAP2 SWAP1 DUP2 DUP2 MSTORE PUSH1 0x20 ADD DUP3 DUP1 SLOAD PUSH2 0x1F03 SWAP1 PUSH2 0x3661 JUMP JUMPDEST DUP1 ISZERO PUSH2 0x1F50 JUMPI DUP1 PUSH1 0x1F LT PUSH2 0x1F25 JUMPI PUSH2 0x100 DUP1 DUP4 SLOAD DIV MUL DUP4 MSTORE SWAP2 PUSH1 0x20 ADD SWAP2 PUSH2 0x1F50 JUMP JUMPDEST DUP3 ADD SWAP2 SWAP1 PUSH1 0x0 MSTORE PUSH1 0x20 PUSH1 0x0 KECCAK256 SWAP1 JUMPDEST DUP2 SLOAD DUP2 MSTORE SWAP1 PUSH1 0x1 ADD SWAP1 PUSH1 0x20 ADD DUP1 DUP4 GT PUSH2 0x1F33 JUMPI DUP3 SWAP1 SUB PUSH1 0x1F AND DUP3 ADD SWAP2 JUMPDEST POP POP POP POP POP DUP2 MSTORE POP POP SWAP1 POP DUP6 DUP2 PUSH1 0x20 ADD SWAP1 PUSH20 0xFFFFFFFFFFFFFFFFFFFFFFFFFFFFFFFFFFFFFFFF AND SWAP1 DUP2 PUSH20 0xFFFFFFFFFFFFFFFFFFFFFFFFFFFFFFFFFFFFFFFF AND DUP2 MSTORE POP POP DUP5 DUP2 PUSH1 0x0 ADD DUP2 SWAP1 MSTORE POP DUP3 DUP2 PUSH1 0x80 ADD DUP2 SWAP1 MSTORE POP DUP2 DUP2 PUSH1 0xA0 ADD DUP2 SWAP1 MSTORE POP DUP4 DUP2 PUSH1 0x60 ADD DUP2 SWAP1 MSTORE POP TIMESTAMP DUP2 PUSH1 0x40 ADD DUP2 DUP2 MSTORE POP POP DUP1 PUSH1 0x3 PUSH1 0x0 DUP9 PUSH20 0xFFFFFFFFFFFFFFFFFFFFFFFFFFFFFFFFFFFFFFFF AND PUSH20 0xFFFFFFFFFFFFFFFFFFFFFFFFFFFFFFFFFFFFFFFF AND DUP2 MSTORE PUSH1 0x20 ADD SWAP1 DUP2 MSTORE PUSH1 0x20 ADD PUSH1 0x0 KECCAK256 PUSH1 0x0 DUP3 ADD MLOAD DUP2 PUSH1 0x0 ADD SWAP1 DUP1 MLOAD SWAP1 PUSH1 0x20 ADD SWAP1 PUSH2 0x201D SWAP3 SWAP2 SWAP1 PUSH2 0x29BB JUMP JUMPDEST POP PUSH1 0x20 DUP3 ADD MLOAD DUP2 PUSH1 0x1 ADD PUSH1 0x0 PUSH2 0x100 EXP DUP2 SLOAD DUP2 PUSH20 0xFFFFFFFFFFFFFFFFFFFFFFFFFFFFFFFFFFFFFFFF MUL NOT AND SWAP1 DUP4 PUSH20 0xFFFFFFFFFFFFFFFFFFFFFFFFFFFFFFFFFFFFFFFF AND MUL OR SWAP1 SSTORE POP PUSH1 0x40 DUP3 ADD MLOAD DUP2 PUSH1 0x2 ADD SSTORE PUSH1 0x60 DUP3 ADD MLOAD DUP2 PUSH1 0x3 ADD SWAP1 DUP1 MLOAD SWAP1 PUSH1 0x20 ADD SWAP1 PUSH2 0x208B SWAP3 SWAP2 SWAP1 PUSH2 0x29BB JUMP JUMPDEST POP PUSH1 0x80 DUP3 ADD MLOAD DUP2 PUSH1 0x4 ADD SWAP1 DUP1 MLOAD SWAP1 PUSH1 0x20 ADD SWAP1 PUSH2 0x20A8 SWAP3 SWAP2 SWAP1 PUSH2 0x29BB JUMP JUMPDEST POP PUSH1 0xA0 DUP3 ADD MLOAD DUP2 PUSH1 0x5 ADD SWAP1 DUP1 MLOAD SWAP1 PUSH1 0x20 ADD SWAP1 PUSH2 0x20C5 SWAP3 SWAP2 SWAP1 PUSH2 0x29BB JUMP JUMPDEST POP SWAP1 POP POP DUP1 PUSH1 0x40 ADD MLOAD DUP2 PUSH1 0x20 ADD MLOAD PUSH20 0xFFFFFFFFFFFFFFFFFFFFFFFFFFFFFFFFFFFFFFFF AND PUSH32 0x8328C1899ED517DA68D051EBA8958736A049E7DF8796F024F4F6D4FAA41F62A7 DUP4 PUSH1 0x0 ADD MLOAD DUP5 PUSH1 0x60 ADD MLOAD DUP6 PUSH1 0x80 ADD MLOAD DUP7 PUSH1 0xA0 ADD MLOAD PUSH1 0x40 MLOAD PUSH2 0x212E SWAP5 SWAP4 SWAP3 SWAP2 SWAP1 PUSH2 0x3420 JUMP JUMPDEST PUSH1 0x40 MLOAD DUP1 SWAP2 SUB SWAP1 LOG3 POP PUSH1 0x1 PUSH1 0x0 DUP2 SWAP1 SSTORE POP POP POP POP POP POP JUMP JUMPDEST PUSH32 0x0 PUSH20 0xFFFFFFFFFFFFFFFFFFFFFFFFFFFFFFFFFFFFFFFF AND CALLER PUSH20 0xFFFFFFFFFFFFFFFFFFFFFFFFFFFFFFFFFFFFFFFF AND EQ PUSH2 0x21CB JUMPI PUSH1 0x40 MLOAD PUSH32 0x67DFC9F900000000000000000000000000000000000000000000000000000000 DUP2 MSTORE PUSH1 0x4 ADD PUSH1 0x40 MLOAD DUP1 SWAP2 SUB SWAP1 REVERT JUMPDEST PUSH1 0x2 PUSH1 0x0 SLOAD EQ ISZERO PUSH2 0x2211 JUMPI PUSH1 0x40 MLOAD PUSH32 0x8C379A000000000000000000000000000000000000000000000000000000000 DUP2 MSTORE PUSH1 0x4 ADD PUSH2 0x2208 SWAP1 PUSH2 0x34C6 JUMP JUMPDEST PUSH1 0x40 MLOAD DUP1 SWAP2 SUB SWAP1 REVERT JUMPDEST PUSH1 0x2 PUSH1 0x0 DUP2 SWAP1 SSTORE POP PUSH2 0x2221 PUSH2 0x2AA1 JUMP JUMPDEST DUP6 DUP2 PUSH1 0x20 ADD DUP2 SWAP1 MSTORE POP DUP5 DUP2 PUSH1 0x40 ADD DUP2 SWAP1 MSTORE POP DUP7 DUP2 PUSH1 0x0 ADD SWAP1 PUSH20 0xFFFFFFFFFFFFFFFFFFFFFFFFFFFFFFFFFFFFFFFF AND SWAP1 DUP2 PUSH20 0xFFFFFFFFFFFFFFFFFFFFFFFFFFFFFFFFFFFFFFFF AND DUP2 MSTORE POP POP DUP4 DUP2 PUSH1 0x60 ADD DUP2 DUP2 MSTORE POP POP DUP3 DUP2 PUSH1 0x80 ADD DUP2 SWAP1 MSTORE POP DUP2 DUP2 PUSH1 0xA0 ADD SWAP1 PUSH20 0xFFFFFFFFFFFFFFFFFFFFFFFFFFFFFFFFFFFFFFFF AND SWAP1 DUP2 PUSH20 0xFFFFFFFFFFFFFFFFFFFFFFFFFFFFFFFFFFFFFFFF AND DUP2 MSTORE POP POP DUP1 PUSH1 0x2 PUSH1 0x0 DUP10 PUSH20 0xFFFFFFFFFFFFFFFFFFFFFFFFFFFFFFFFFFFFFFFF AND PUSH20 0xFFFFFFFFFFFFFFFFFFFFFFFFFFFFFFFFFFFFFFFF AND DUP2 MSTORE PUSH1 0x20 ADD SWAP1 DUP2 MSTORE PUSH1 0x20 ADD PUSH1 0x0 KECCAK256 PUSH1 0x0 DUP3 ADD MLOAD DUP2 PUSH1 0x0 ADD PUSH1 0x0 PUSH2 0x100 EXP DUP2 SLOAD DUP2 PUSH20 0xFFFFFFFFFFFFFFFFFFFFFFFFFFFFFFFFFFFFFFFF MUL NOT AND SWAP1 DUP4 PUSH20 0xFFFFFFFFFFFFFFFFFFFFFFFFFFFFFFFFFFFFFFFF AND MUL OR SWAP1 SSTORE POP PUSH1 0x20 DUP3 ADD MLOAD DUP2 PUSH1 0x1 ADD SWAP1 DUP1 MLOAD SWAP1 PUSH1 0x20 ADD SWAP1 PUSH2 0x2359 SWAP3 SWAP2 SWAP1 PUSH2 0x29BB JUMP JUMPDEST POP PUSH1 0x40 DUP3 ADD MLOAD DUP2 PUSH1 0x2 ADD SWAP1 DUP1 MLOAD SWAP1 PUSH1 0x20 ADD SWAP1 PUSH2 0x2376 SWAP3 SWAP2 SWAP1 PUSH2 0x29BB JUMP JUMPDEST POP PUSH1 0x60 DUP3 ADD MLOAD DUP2 PUSH1 0x3 ADD SSTORE PUSH1 0x80 DUP3 ADD MLOAD DUP2 PUSH1 0x4 ADD SWAP1 DUP1 MLOAD SWAP1 PUSH1 0x20 ADD SWAP1 PUSH2 0x239D SWAP3 SWAP2 SWAP1 PUSH2 0x29BB JUMP JUMPDEST POP PUSH1 0xA0 DUP3 ADD MLOAD DUP2 PUSH1 0x5 ADD PUSH1 0x0 PUSH2 0x100 EXP DUP2 SLOAD DUP2 PUSH20 0xFFFFFFFFFFFFFFFFFFFFFFFFFFFFFFFFFFFFFFFF MUL NOT AND SWAP1 DUP4 PUSH20 0xFFFFFFFFFFFFFFFFFFFFFFFFFFFFFFFFFFFFFFFF AND MUL OR SWAP1 SSTORE POP SWAP1 POP POP DUP1 PUSH1 0xA0 ADD MLOAD PUSH20 0xFFFFFFFFFFFFFFFFFFFFFFFFFFFFFFFFFFFFFFFF AND DUP2 PUSH1 0x60 ADD MLOAD DUP9 PUSH20 0xFFFFFFFFFFFFFFFFFFFFFFFFFFFFFFFFFFFFFFFF AND PUSH32 0x5E18314F9ACE467B668A842BA6E5F08623134BBB2695F02C54D1AAB199048E4E DUP5 PUSH1 0x20 ADD MLOAD DUP6 PUSH1 0x40 ADD MLOAD DUP7 PUSH1 0x80 ADD MLOAD PUSH1 0x40 MLOAD PUSH2 0x245E SWAP4 SWAP3 SWAP2 SWAP1 PUSH2 0x337A JUMP JUMPDEST PUSH1 0x40 MLOAD DUP1 SWAP2 SUB SWAP1 LOG4 POP PUSH1 0x1 PUSH1 0x0 DUP2 SWAP1 SSTORE POP POP POP POP POP POP POP JUMP JUMPDEST PUSH1 0x60 DUP1 PUSH1 0x60 PUSH1 0x0 PUSH1 0x2 PUSH1 0x0 DUP7 PUSH20 0xFFFFFFFFFFFFFFFFFFFFFFFFFFFFFFFFFFFFFFFF AND PUSH20 0xFFFFFFFFFFFFFFFFFFFFFFFFFFFFFFFFFFFFFFFF AND DUP2 MSTORE PUSH1 0x20 ADD SWAP1 DUP2 MSTORE PUSH1 0x20 ADD PUSH1 0x0 KECCAK256 PUSH1 0x1 ADD PUSH1 0x2 PUSH1 0x0 DUP8 PUSH20 0xFFFFFFFFFFFFFFFFFFFFFFFFFFFFFFFFFFFFFFFF AND PUSH20 0xFFFFFFFFFFFFFFFFFFFFFFFFFFFFFFFFFFFFFFFF AND DUP2 MSTORE PUSH1 0x20 ADD SWAP1 DUP2 MSTORE PUSH1 0x20 ADD PUSH1 0x0 KECCAK256 PUSH1 0x4 ADD PUSH1 0x2 PUSH1 0x0 DUP9 PUSH20 0xFFFFFFFFFFFFFFFFFFFFFFFFFFFFFFFFFFFFFFFF AND PUSH20 0xFFFFFFFFFFFFFFFFFFFFFFFFFFFFFFFFFFFFFFFF AND DUP2 MSTORE PUSH1 0x20 ADD SWAP1 DUP2 MSTORE PUSH1 0x20 ADD PUSH1 0x0 KECCAK256 PUSH1 0x2 ADD PUSH1 0x2 PUSH1 0x0 DUP10 PUSH20 0xFFFFFFFFFFFFFFFFFFFFFFFFFFFFFFFFFFFFFFFF AND PUSH20 0xFFFFFFFFFFFFFFFFFFFFFFFFFFFFFFFFFFFFFFFF AND DUP2 MSTORE PUSH1 0x20 ADD SWAP1 DUP2 MSTORE PUSH1 0x20 ADD PUSH1 0x0 KECCAK256 PUSH1 0x5 ADD PUSH1 0x0 SWAP1 SLOAD SWAP1 PUSH2 0x100 EXP SWAP1 DIV PUSH20 0xFFFFFFFFFFFFFFFFFFFFFFFFFFFFFFFFFFFFFFFF AND DUP4 DUP1 SLOAD PUSH2 0x25B3 SWAP1 PUSH2 0x3661 JUMP JUMPDEST DUP1 PUSH1 0x1F ADD PUSH1 0x20 DUP1 SWAP2 DIV MUL PUSH1 0x20 ADD PUSH1 0x40 MLOAD SWAP1 DUP2 ADD PUSH1 0x40 MSTORE DUP1 SWAP3 SWAP2 SWAP1 DUP2 DUP2 MSTORE PUSH1 0x20 ADD DUP3 DUP1 SLOAD PUSH2 0x25DF SWAP1 PUSH2 0x3661 JUMP JUMPDEST DUP1 ISZERO PUSH2 0x262C JUMPI DUP1 PUSH1 0x1F LT PUSH2 0x2601 JUMPI PUSH2 0x100 DUP1 DUP4 SLOAD DIV MUL DUP4 MSTORE SWAP2 PUSH1 0x20 ADD SWAP2 PUSH2 0x262C JUMP JUMPDEST DUP3 ADD SWAP2 SWAP1 PUSH1 0x0 MSTORE PUSH1 0x20 PUSH1 0x0 KECCAK256 SWAP1 JUMPDEST DUP2 SLOAD DUP2 MSTORE SWAP1 PUSH1 0x1 ADD SWAP1 PUSH1 0x20 ADD DUP1 DUP4 GT PUSH2 0x260F JUMPI DUP3 SWAP1 SUB PUSH1 0x1F AND DUP3 ADD SWAP2 JUMPDEST POP POP POP POP POP SWAP4 POP DUP3 DUP1 SLOAD PUSH2 0x263F SWAP1 PUSH2 0x3661 JUMP JUMPDEST DUP1 PUSH1 0x1F ADD PUSH1 0x20 DUP1 SWAP2 DIV MUL PUSH1 0x20 ADD PUSH1 0x40 MLOAD SWAP1 DUP2 ADD PUSH1 0x40 MSTORE DUP1 SWAP3 SWAP2 SWAP1 DUP2 DUP2 MSTORE PUSH1 0x20 ADD DUP3 DUP1 SLOAD PUSH2 0x266B SWAP1 PUSH2 0x3661 JUMP JUMPDEST DUP1 ISZERO PUSH2 0x26B8 JUMPI DUP1 PUSH1 0x1F LT PUSH2 0x268D JUMPI PUSH2 0x100 DUP1 DUP4 SLOAD DIV MUL DUP4 MSTORE SWAP2 PUSH1 0x20 ADD SWAP2 PUSH2 0x26B8 JUMP JUMPDEST DUP3 ADD SWAP2 SWAP1 PUSH1 0x0 MSTORE PUSH1 0x20 PUSH1 0x0 KECCAK256 SWAP1 JUMPDEST DUP2 SLOAD DUP2 MSTORE SWAP1 PUSH1 0x1 ADD SWAP1 PUSH1 0x20 ADD DUP1 DUP4 GT PUSH2 0x269B JUMPI DUP3 SWAP1 SUB PUSH1 0x1F AND DUP3 ADD SWAP2 JUMPDEST POP POP POP POP POP SWAP3 POP DUP2 DUP1 SLOAD PUSH2 0x26CB SWAP1 PUSH2 0x3661 JUMP JUMPDEST DUP1 PUSH1 0x1F ADD PUSH1 0x20 DUP1 SWAP2 DIV MUL PUSH1 0x20 ADD PUSH1 0x40 MLOAD SWAP1 DUP2 ADD PUSH1 0x40 MSTORE DUP1 SWAP3 SWAP2 SWAP1 DUP2 DUP2 MSTORE PUSH1 0x20 ADD DUP3 DUP1 SLOAD PUSH2 0x26F7 SWAP1 PUSH2 0x3661 JUMP JUMPDEST DUP1 ISZERO PUSH2 0x2744 JUMPI DUP1 PUSH1 0x1F LT PUSH2 0x2719 JUMPI PUSH2 0x100 DUP1 DUP4 SLOAD DIV MUL DUP4 MSTORE SWAP2 PUSH1 0x20 ADD SWAP2 PUSH2 0x2744 JUMP JUMPDEST DUP3 ADD SWAP2 SWAP1 PUSH1 0x0 MSTORE PUSH1 0x20 PUSH1 0x0 KECCAK256 SWAP1 JUMPDEST DUP2 SLOAD DUP2 MSTORE SWAP1 PUSH1 0x1 ADD SWAP1 PUSH1 0x20 ADD DUP1 DUP4 GT PUSH2 0x2727 JUMPI DUP3 SWAP1 SUB PUSH1 0x1F AND DUP3 ADD SWAP2 JUMPDEST POP POP POP POP POP SWAP2 POP SWAP4 POP SWAP4 POP SWAP4 POP SWAP4 POP SWAP2 SWAP4 POP SWAP2 SWAP4 JUMP JUMPDEST PUSH1 0x60 DUP1 PUSH1 0x0 PUSH1 0x1 PUSH1 0x0 DUP6 PUSH20 0xFFFFFFFFFFFFFFFFFFFFFFFFFFFFFFFFFFFFFFFF AND PUSH20 0xFFFFFFFFFFFFFFFFFFFFFFFFFFFFFFFFFFFFFFFF AND DUP2 MSTORE PUSH1 0x20 ADD SWAP1 DUP2 MSTORE PUSH1 0x20 ADD PUSH1 0x0 KECCAK256 PUSH1 0x0 ADD PUSH1 0x1 PUSH1 0x0 DUP7 PUSH20 0xFFFFFFFFFFFFFFFFFFFFFFFFFFFFFFFFFFFFFFFF AND PUSH20 0xFFFFFFFFFFFFFFFFFFFFFFFFFFFFFFFFFFFFFFFF AND DUP2 MSTORE PUSH1 0x20 ADD SWAP1 DUP2 MSTORE PUSH1 0x20 ADD PUSH1 0x0 KECCAK256 PUSH1 0x5 ADD PUSH1 0x1 PUSH1 0x0 DUP8 PUSH20 0xFFFFFFFFFFFFFFFFFFFFFFFFFFFFFFFFFFFFFFFF AND PUSH20 0xFFFFFFFFFFFFFFFFFFFFFFFFFFFFFFFFFFFFFFFF AND DUP2 MSTORE PUSH1 0x20 ADD SWAP1 DUP2 MSTORE PUSH1 0x20 ADD PUSH1 0x0 KECCAK256 PUSH1 0x6 ADD SLOAD DUP3 DUP1 SLOAD PUSH2 0x2832 SWAP1 PUSH2 0x3661 JUMP JUMPDEST DUP1 PUSH1 0x1F ADD PUSH1 0x20 DUP1 SWAP2 DIV MUL PUSH1 0x20 ADD PUSH1 0x40 MLOAD SWAP1 DUP2 ADD PUSH1 0x40 MSTORE DUP1 SWAP3 SWAP2 SWAP1 DUP2 DUP2 MSTORE PUSH1 0x20 ADD DUP3 DUP1 SLOAD PUSH2 0x285E SWAP1 PUSH2 0x3661 JUMP JUMPDEST DUP1 ISZERO PUSH2 0x28AB JUMPI DUP1 PUSH1 0x1F LT PUSH2 0x2880 JUMPI PUSH2 0x100 DUP1 DUP4 SLOAD DIV MUL DUP4 MSTORE SWAP2 PUSH1 0x20 ADD SWAP2 PUSH2 0x28AB JUMP JUMPDEST DUP3 ADD SWAP2 SWAP1 PUSH1 0x0 MSTORE PUSH1 0x20 PUSH1 0x0 KECCAK256 SWAP1 JUMPDEST DUP2 SLOAD DUP2 MSTORE SWAP1 PUSH1 0x1 ADD SWAP1 PUSH1 0x20 ADD DUP1 DUP4 GT PUSH2 0x288E JUMPI DUP3 SWAP1 SUB PUSH1 0x1F AND DUP3 ADD SWAP2 JUMPDEST POP POP POP POP POP SWAP3 POP DUP2 DUP1 SLOAD PUSH2 0x28BE SWAP1 PUSH2 0x3661 JUMP JUMPDEST DUP1 PUSH1 0x1F ADD PUSH1 0x20 DUP1 SWAP2 DIV MUL PUSH1 0x20 ADD PUSH1 0x40 MLOAD SWAP1 DUP2 ADD PUSH1 0x40 MSTORE DUP1 SWAP3 SWAP2 SWAP1 DUP2 DUP2 MSTORE PUSH1 0x20 ADD DUP3 DUP1 SLOAD PUSH2 0x28EA SWAP1 PUSH2 0x3661 JUMP JUMPDEST DUP1 ISZERO PUSH2 0x2937 JUMPI DUP1 PUSH1 0x1F LT PUSH2 0x290C JUMPI PUSH2 0x100 DUP1 DUP4 SLOAD DIV MUL DUP4 MSTORE SWAP2 PUSH1 0x20 ADD SWAP2 PUSH2 0x2937 JUMP JUMPDEST DUP3 ADD SWAP2 SWAP1 PUSH1 0x0 MSTORE PUSH1 0x20 PUSH1 0x0 KECCAK256 SWAP1 JUMPDEST DUP2 SLOAD DUP2 MSTORE SWAP1 PUSH1 0x1 ADD SWAP1 PUSH1 0x20 ADD DUP1 DUP4 GT PUSH2 0x291A JUMPI DUP3 SWAP1 SUB PUSH1 0x1F AND DUP3 ADD SWAP2 JUMPDEST POP POP POP POP POP SWAP2 POP SWAP3 POP SWAP3 POP SWAP3 POP SWAP2 SWAP4 SWAP1 SWAP3 POP JUMP JUMPDEST PUSH1 0x40 MLOAD DUP1 PUSH2 0x160 ADD PUSH1 0x40 MSTORE DUP1 PUSH1 0x60 DUP2 MSTORE PUSH1 0x20 ADD PUSH1 0x0 PUSH20 0xFFFFFFFFFFFFFFFFFFFFFFFFFFFFFFFFFFFFFFFF AND DUP2 MSTORE PUSH1 0x20 ADD PUSH1 0x0 DUP2 MSTORE PUSH1 0x20 ADD PUSH1 0x60 DUP2 MSTORE PUSH1 0x20 ADD PUSH1 0x60 DUP2 MSTORE PUSH1 0x20 ADD PUSH1 0x60 DUP2 MSTORE PUSH1 0x20 ADD PUSH1 0x0 DUP2 MSTORE PUSH1 0x20 ADD PUSH1 0x60 DUP2 MSTORE PUSH1 0x20 ADD PUSH1 0x60 DUP2 MSTORE PUSH1 0x20 ADD PUSH1 0x60 DUP2 MSTORE PUSH1 0x20 ADD PUSH1 0x60 DUP2 MSTORE POP SWAP1 JUMP JUMPDEST DUP3 DUP1 SLOAD PUSH2 0x29C7 SWAP1 PUSH2 0x3661 JUMP JUMPDEST SWAP1 PUSH1 0x0 MSTORE PUSH1 0x20 PUSH1 0x0 KECCAK256 SWAP1 PUSH1 0x1F ADD PUSH1 0x20 SWAP1 DIV DUP2 ADD SWAP3 DUP3 PUSH2 0x29E9 JUMPI PUSH1 0x0 DUP6 SSTORE PUSH2 0x2A30 JUMP JUMPDEST DUP3 PUSH1 0x1F LT PUSH2 0x2A02 JUMPI DUP1 MLOAD PUSH1 0xFF NOT AND DUP4 DUP1 ADD OR DUP6 SSTORE PUSH2 0x2A30 JUMP JUMPDEST DUP3 DUP1 ADD PUSH1 0x1 ADD DUP6 SSTORE DUP3 ISZERO PUSH2 0x2A30 JUMPI SWAP2 DUP3 ADD JUMPDEST DUP3 DUP2 GT ISZERO PUSH2 0x2A2F JUMPI DUP3 MLOAD DUP3 SSTORE SWAP2 PUSH1 0x20 ADD SWAP2 SWAP1 PUSH1 0x1 ADD SWAP1 PUSH2 0x2A14 JUMP JUMPDEST JUMPDEST POP SWAP1 POP PUSH2 0x2A3D SWAP2 SWAP1 PUSH2 0x2B03 JUMP JUMPDEST POP SWAP1 JUMP JUMPDEST DUP3 DUP1 SLOAD DUP3 DUP3 SSTORE SWAP1 PUSH1 0x0 MSTORE PUSH1 0x20 PUSH1 0x0 KECCAK256 SWAP1 DUP2 ADD SWAP3 DUP3 ISZERO PUSH2 0x2A90 JUMPI SWAP2 PUSH1 0x20 MUL DUP3 ADD JUMPDEST DUP3 DUP2 GT ISZERO PUSH2 0x2A8F JUMPI DUP3 MLOAD DUP3 SWAP1 DUP1 MLOAD SWAP1 PUSH1 0x20 ADD SWAP1 PUSH2 0x2A7F SWAP3 SWAP2 SWAP1 PUSH2 0x29BB JUMP JUMPDEST POP SWAP2 PUSH1 0x20 ADD SWAP2 SWAP1 PUSH1 0x1 ADD SWAP1 PUSH2 0x2A61 JUMP JUMPDEST JUMPDEST POP SWAP1 POP PUSH2 0x2A9D SWAP2 SWAP1 PUSH2 0x2B20 JUMP JUMPDEST POP SWAP1 JUMP JUMPDEST PUSH1 0x40 MLOAD DUP1 PUSH1 0xC0 ADD PUSH1 0x40 MSTORE DUP1 PUSH1 0x0 PUSH20 0xFFFFFFFFFFFFFFFFFFFFFFFFFFFFFFFFFFFFFFFF AND DUP2 MSTORE PUSH1 0x20 ADD PUSH1 0x60 DUP2 MSTORE PUSH1 0x20 ADD PUSH1 0x60 DUP2 MSTORE PUSH1 0x20 ADD PUSH1 0x0 DUP2 MSTORE PUSH1 0x20 ADD PUSH1 0x60 DUP2 MSTORE PUSH1 0x20 ADD PUSH1 0x0 PUSH20 0xFFFFFFFFFFFFFFFFFFFFFFFFFFFFFFFFFFFFFFFF AND DUP2 MSTORE POP SWAP1 JUMP JUMPDEST JUMPDEST DUP1 DUP3 GT ISZERO PUSH2 0x2B1C JUMPI PUSH1 0x0 DUP2 PUSH1 0x0 SWAP1 SSTORE POP PUSH1 0x1 ADD PUSH2 0x2B04 JUMP JUMPDEST POP SWAP1 JUMP JUMPDEST JUMPDEST DUP1 DUP3 GT ISZERO PUSH2 0x2B40 JUMPI PUSH1 0x0 DUP2 DUP2 PUSH2 0x2B37 SWAP2 SWAP1 PUSH2 0x2B44 JUMP JUMPDEST POP PUSH1 0x1 ADD PUSH2 0x2B21 JUMP JUMPDEST POP SWAP1 JUMP JUMPDEST POP DUP1 SLOAD PUSH2 0x2B50 SWAP1 PUSH2 0x3661 JUMP JUMPDEST PUSH1 0x0 DUP3 SSTORE DUP1 PUSH1 0x1F LT PUSH2 0x2B62 JUMPI POP PUSH2 0x2B81 JUMP JUMPDEST PUSH1 0x1F ADD PUSH1 0x20 SWAP1 DIV SWAP1 PUSH1 0x0 MSTORE PUSH1 0x20 PUSH1 0x0 KECCAK256 SWAP1 DUP2 ADD SWAP1 PUSH2 0x2B80 SWAP2 SWAP1 PUSH2 0x2B03 JUMP JUMPDEST JUMPDEST POP JUMP JUMPDEST PUSH1 0x0 PUSH2 0x2B97 PUSH2 0x2B92 DUP5 PUSH2 0x352D JUMP JUMPDEST PUSH2 0x3508 JUMP JUMPDEST SWAP1 POP DUP3 DUP2 MSTORE PUSH1 0x20 DUP2 ADD DUP5 DUP5 DUP5 ADD GT ISZERO PUSH2 0x2BB3 JUMPI PUSH2 0x2BB2 PUSH2 0x3727 JUMP JUMPDEST JUMPDEST PUSH2 0x2BBE DUP5 DUP3 DUP6 PUSH2 0x361F JUMP JUMPDEST POP SWAP4 SWAP3 POP POP POP JUMP JUMPDEST PUSH1 0x0 DUP2 CALLDATALOAD SWAP1 POP PUSH2 0x2BD5 DUP2 PUSH2 0x3770 JUMP JUMPDEST SWAP3 SWAP2 POP POP JUMP JUMPDEST PUSH1 0x0 DUP3 PUSH1 0x1F DUP4 ADD SLT PUSH2 0x2BF0 JUMPI PUSH2 0x2BEF PUSH2 0x3722 JUMP JUMPDEST JUMPDEST DUP2 CALLDATALOAD PUSH2 0x2C00 DUP5 DUP3 PUSH1 0x20 DUP7 ADD PUSH2 0x2B84 JUMP JUMPDEST SWAP2 POP POP SWAP3 SWAP2 POP POP JUMP JUMPDEST PUSH1 0x0 DUP2 CALLDATALOAD SWAP1 POP PUSH2 0x2C18 DUP2 PUSH2 0x3787 JUMP JUMPDEST SWAP3 SWAP2 POP POP JUMP JUMPDEST PUSH1 0x0 DUP2 CALLDATALOAD SWAP1 POP PUSH2 0x2C2D DUP2 PUSH2 0x379E JUMP JUMPDEST SWAP3 SWAP2 POP POP JUMP JUMPDEST PUSH1 0x0 PUSH1 0x20 DUP3 DUP5 SUB SLT ISZERO PUSH2 0x2C49 JUMPI PUSH2 0x2C48 PUSH2 0x3731 JUMP JUMPDEST JUMPDEST PUSH1 0x0 PUSH2 0x2C57 DUP5 DUP3 DUP6 ADD PUSH2 0x2BC6 JUMP JUMPDEST SWAP2 POP POP SWAP3 SWAP2 POP POP JUMP JUMPDEST PUSH1 0x0 DUP1 PUSH1 0x0 DUP1 PUSH1 0x0 PUSH1 0xA0 DUP7 DUP9 SUB SLT ISZERO PUSH2 0x2C7C JUMPI PUSH2 0x2C7B PUSH2 0x3731 JUMP JUMPDEST JUMPDEST PUSH1 0x0 PUSH2 0x2C8A DUP9 DUP3 DUP10 ADD PUSH2 0x2BC6 JUMP JUMPDEST SWAP6 POP POP PUSH1 0x20 DUP7 ADD CALLDATALOAD PUSH8 0xFFFFFFFFFFFFFFFF DUP2 GT ISZERO PUSH2 0x2CAB JUMPI PUSH2 0x2CAA PUSH2 0x372C JUMP JUMPDEST JUMPDEST PUSH2 0x2CB7 DUP9 DUP3 DUP10 ADD PUSH2 0x2BDB JUMP JUMPDEST SWAP5 POP POP PUSH1 0x40 DUP7 ADD CALLDATALOAD PUSH8 0xFFFFFFFFFFFFFFFF DUP2 GT ISZERO PUSH2 0x2CD8 JUMPI PUSH2 0x2CD7 PUSH2 0x372C JUMP JUMPDEST JUMPDEST PUSH2 0x2CE4 DUP9 DUP3 DUP10 ADD PUSH2 0x2BDB JUMP JUMPDEST SWAP4 POP POP PUSH1 0x60 DUP7 ADD CALLDATALOAD PUSH8 0xFFFFFFFFFFFFFFFF DUP2 GT ISZERO PUSH2 0x2D05 JUMPI PUSH2 0x2D04 PUSH2 0x372C JUMP JUMPDEST JUMPDEST PUSH2 0x2D11 DUP9 DUP3 DUP10 ADD PUSH2 0x2BDB JUMP JUMPDEST SWAP3 POP POP PUSH1 0x80 DUP7 ADD CALLDATALOAD PUSH8 0xFFFFFFFFFFFFFFFF DUP2 GT ISZERO PUSH2 0x2D32 JUMPI PUSH2 0x2D31 PUSH2 0x372C JUMP JUMPDEST JUMPDEST PUSH2 0x2D3E DUP9 DUP3 DUP10 ADD PUSH2 0x2BDB JUMP JUMPDEST SWAP2 POP POP SWAP3 SWAP6 POP SWAP3 SWAP6 SWAP1 SWAP4 POP JUMP JUMPDEST PUSH1 0x0 DUP1 PUSH1 0x0 DUP1 PUSH1 0x0 DUP1 PUSH1 0xC0 DUP8 DUP10 SUB SLT ISZERO PUSH2 0x2D68 JUMPI PUSH2 0x2D67 PUSH2 0x3731 JUMP JUMPDEST JUMPDEST PUSH1 0x0 PUSH2 0x2D76 DUP10 DUP3 DUP11 ADD PUSH2 0x2BC6 JUMP JUMPDEST SWAP7 POP POP PUSH1 0x20 DUP8 ADD CALLDATALOAD PUSH8 0xFFFFFFFFFFFFFFFF DUP2 GT ISZERO PUSH2 0x2D97 JUMPI PUSH2 0x2D96 PUSH2 0x372C JUMP JUMPDEST JUMPDEST PUSH2 0x2DA3 DUP10 DUP3 DUP11 ADD PUSH2 0x2BDB JUMP JUMPDEST SWAP6 POP POP PUSH1 0x40 DUP8 ADD CALLDATALOAD PUSH8 0xFFFFFFFFFFFFFFFF DUP2 GT ISZERO PUSH2 0x2DC4 JUMPI PUSH2 0x2DC3 PUSH2 0x372C JUMP JUMPDEST JUMPDEST PUSH2 0x2DD0 DUP10 DUP3 DUP11 ADD PUSH2 0x2BDB JUMP JUMPDEST SWAP5 POP POP PUSH1 0x60 PUSH2 0x2DE1 DUP10 DUP3 DUP11 ADD PUSH2 0x2C1E JUMP JUMPDEST SWAP4 POP POP PUSH1 0x80 DUP8 ADD CALLDATALOAD PUSH8 0xFFFFFFFFFFFFFFFF DUP2 GT ISZERO PUSH2 0x2E02 JUMPI PUSH2 0x2E01 PUSH2 0x372C JUMP JUMPDEST JUMPDEST PUSH2 0x2E0E DUP10 DUP3 DUP11 ADD PUSH2 0x2BDB JUMP JUMPDEST SWAP3 POP POP PUSH1 0xA0 PUSH2 0x2E1F DUP10 DUP3 DUP11 ADD PUSH2 0x2BC6 JUMP JUMPDEST SWAP2 POP POP SWAP3 SWAP6 POP SWAP3 SWAP6 POP SWAP3 SWAP6 JUMP JUMPDEST PUSH1 0x0 DUP1 PUSH1 0x0 DUP1 PUSH1 0x0 DUP1 PUSH1 0xC0 DUP8 DUP10 SUB SLT ISZERO PUSH2 0x2E49 JUMPI PUSH2 0x2E48 PUSH2 0x3731 JUMP JUMPDEST JUMPDEST PUSH1 0x0 PUSH2 0x2E57 DUP10 DUP3 DUP11 ADD PUSH2 0x2BC6 JUMP JUMPDEST SWAP7 POP POP PUSH1 0x20 DUP8 ADD CALLDATALOAD PUSH8 0xFFFFFFFFFFFFFFFF DUP2 GT ISZERO PUSH2 0x2E78 JUMPI PUSH2 0x2E77 PUSH2 0x372C JUMP JUMPDEST JUMPDEST PUSH2 0x2E84 DUP10 DUP3 DUP11 ADD PUSH2 0x2BDB JUMP JUMPDEST SWAP6 POP POP PUSH1 0x40 PUSH2 0x2E95 DUP10 DUP3 DUP11 ADD PUSH2 0x2C1E JUMP JUMPDEST SWAP5 POP POP PUSH1 0x60 DUP8 ADD CALLDATALOAD PUSH8 0xFFFFFFFFFFFFFFFF DUP2 GT ISZERO PUSH2 0x2EB6 JUMPI PUSH2 0x2EB5 PUSH2 0x372C JUMP JUMPDEST JUMPDEST PUSH2 0x2EC2 DUP10 DUP3 DUP11 ADD PUSH2 0x2BDB JUMP JUMPDEST SWAP4 POP POP PUSH1 0x80 DUP8 ADD CALLDATALOAD PUSH8 0xFFFFFFFFFFFFFFFF DUP2 GT ISZERO PUSH2 0x2EE3 JUMPI PUSH2 0x2EE2 PUSH2 0x372C JUMP JUMPDEST JUMPDEST PUSH2 0x2EEF DUP10 DUP3 DUP11 ADD PUSH2 0x2BDB JUMP JUMPDEST SWAP3 POP POP PUSH1 0xA0 DUP8 ADD CALLDATALOAD PUSH8 0xFFFFFFFFFFFFFFFF DUP2 GT ISZERO PUSH2 0x2F10 JUMPI PUSH2 0x2F0F PUSH2 0x372C JUMP JUMPDEST JUMPDEST PUSH2 0x2F1C DUP10 DUP3 DUP11 ADD PUSH2 0x2BDB JUMP JUMPDEST SWAP2 POP POP SWAP3 SWAP6 POP SWAP3 SWAP6 POP SWAP3 SWAP6 JUMP JUMPDEST PUSH1 0x0 DUP1 PUSH1 0x0 PUSH1 0x60 DUP5 DUP7 SUB SLT ISZERO PUSH2 0x2F42 JUMPI PUSH2 0x2F41 PUSH2 0x3731 JUMP JUMPDEST JUMPDEST PUSH1 0x0 PUSH2 0x2F50 DUP7 DUP3 DUP8 ADD PUSH2 0x2BC6 JUMP JUMPDEST SWAP4 POP POP PUSH1 0x20 PUSH2 0x2F61 DUP7 DUP3 DUP8 ADD PUSH2 0x2C09 JUMP JUMPDEST SWAP3 POP POP PUSH1 0x40 DUP5 ADD CALLDATALOAD PUSH8 0xFFFFFFFFFFFFFFFF DUP2 GT ISZERO PUSH2 0x2F82 JUMPI PUSH2 0x2F81 PUSH2 0x372C JUMP JUMPDEST JUMPDEST PUSH2 0x2F8E DUP7 DUP3 DUP8 ADD PUSH2 0x2BDB JUMP JUMPDEST SWAP2 POP POP SWAP3 POP SWAP3 POP SWAP3 JUMP JUMPDEST PUSH1 0x0 PUSH2 0x2FA4 DUP4 DUP4 PUSH2 0x30B4 JUMP JUMPDEST SWAP1 POP SWAP3 SWAP2 POP POP JUMP JUMPDEST PUSH2 0x2FB5 DUP2 PUSH2 0x35D5 JUMP JUMPDEST DUP3 MSTORE POP POP JUMP JUMPDEST PUSH2 0x2FC4 DUP2 PUSH2 0x35D5 JUMP JUMPDEST DUP3 MSTORE POP POP JUMP JUMPDEST PUSH1 0x0 PUSH2 0x2FD5 DUP3 PUSH2 0x356E JUMP JUMPDEST PUSH2 0x2FDF DUP2 DUP6 PUSH2 0x3591 JUMP JUMPDEST SWAP4 POP DUP4 PUSH1 0x20 DUP3 MUL DUP6 ADD PUSH2 0x2FF1 DUP6 PUSH2 0x355E JUMP JUMPDEST DUP1 PUSH1 0x0 JUMPDEST DUP6 DUP2 LT ISZERO PUSH2 0x302D JUMPI DUP5 DUP5 SUB DUP10 MSTORE DUP2 MLOAD PUSH2 0x300E DUP6 DUP3 PUSH2 0x2F98 JUMP JUMPDEST SWAP5 POP PUSH2 0x3019 DUP4 PUSH2 0x3584 JUMP JUMPDEST SWAP3 POP PUSH1 0x20 DUP11 ADD SWAP10 POP POP PUSH1 0x1 DUP2 ADD SWAP1 POP PUSH2 0x2FF5 JUMP JUMPDEST POP DUP3 SWAP8 POP DUP8 SWAP6 POP POP POP POP POP POP SWAP3 SWAP2 POP POP JUMP JUMPDEST PUSH1 0x0 PUSH2 0x304A DUP3 PUSH2 0x356E JUMP JUMPDEST PUSH2 0x3054 DUP2 DUP6 PUSH2 0x35A2 JUMP JUMPDEST SWAP4 POP DUP4 PUSH1 0x20 DUP3 MUL DUP6 ADD PUSH2 0x3066 DUP6 PUSH2 0x355E JUMP JUMPDEST DUP1 PUSH1 0x0 JUMPDEST DUP6 DUP2 LT ISZERO PUSH2 0x30A2 JUMPI DUP5 DUP5 SUB DUP10 MSTORE DUP2 MLOAD PUSH2 0x3083 DUP6 DUP3 PUSH2 0x2F98 JUMP JUMPDEST SWAP5 POP PUSH2 0x308E DUP4 PUSH2 0x3584 JUMP JUMPDEST SWAP3 POP PUSH1 0x20 DUP11 ADD SWAP10 POP POP PUSH1 0x1 DUP2 ADD SWAP1 POP PUSH2 0x306A JUMP JUMPDEST POP DUP3 SWAP8 POP DUP8 SWAP6 POP POP POP POP POP POP SWAP3 SWAP2 POP POP JUMP JUMPDEST PUSH1 0x0 PUSH2 0x30BF DUP3 PUSH2 0x3579 JUMP JUMPDEST PUSH2 0x30C9 DUP2 DUP6 PUSH2 0x35B3 JUMP JUMPDEST SWAP4 POP PUSH2 0x30D9 DUP2 DUP6 PUSH1 0x20 DUP7 ADD PUSH2 0x362E JUMP JUMPDEST PUSH2 0x30E2 DUP2 PUSH2 0x3736 JUMP JUMPDEST DUP5 ADD SWAP2 POP POP SWAP3 SWAP2 POP POP JUMP JUMPDEST PUSH1 0x0 PUSH2 0x30F8 DUP3 PUSH2 0x3579 JUMP JUMPDEST PUSH2 0x3102 DUP2 DUP6 PUSH2 0x35C4 JUMP JUMPDEST SWAP4 POP PUSH2 0x3112 DUP2 DUP6 PUSH1 0x20 DUP7 ADD PUSH2 0x362E JUMP JUMPDEST PUSH2 0x311B DUP2 PUSH2 0x3736 JUMP JUMPDEST DUP5 ADD SWAP2 POP POP SWAP3 SWAP2 POP POP JUMP JUMPDEST PUSH1 0x0 PUSH2 0x3133 PUSH1 0x1F DUP4 PUSH2 0x35C4 JUMP JUMPDEST SWAP2 POP PUSH2 0x313E DUP3 PUSH2 0x3747 JUMP JUMPDEST PUSH1 0x20 DUP3 ADD SWAP1 POP SWAP2 SWAP1 POP JUMP JUMPDEST PUSH1 0x0 PUSH2 0x160 DUP4 ADD PUSH1 0x0 DUP4 ADD MLOAD DUP5 DUP3 SUB PUSH1 0x0 DUP7 ADD MSTORE PUSH2 0x3167 DUP3 DUP3 PUSH2 0x30B4 JUMP JUMPDEST SWAP2 POP POP PUSH1 0x20 DUP4 ADD MLOAD PUSH2 0x317C PUSH1 0x20 DUP7 ADD DUP3 PUSH2 0x2FAC JUMP JUMPDEST POP PUSH1 0x40 DUP4 ADD MLOAD PUSH2 0x318F PUSH1 0x40 DUP7 ADD DUP3 PUSH2 0x3269 JUMP JUMPDEST POP PUSH1 0x60 DUP4 ADD MLOAD DUP5 DUP3 SUB PUSH1 0x60 DUP7 ADD MSTORE PUSH2 0x31A7 DUP3 DUP3 PUSH2 0x30B4 JUMP JUMPDEST SWAP2 POP POP PUSH1 0x80 DUP4 ADD MLOAD DUP5 DUP3 SUB PUSH1 0x80 DUP7 ADD MSTORE PUSH2 0x31C1 DUP3 DUP3 PUSH2 0x30B4 JUMP JUMPDEST SWAP2 POP POP PUSH1 0xA0 DUP4 ADD MLOAD DUP5 DUP3 SUB PUSH1 0xA0 DUP7 ADD MSTORE PUSH2 0x31DB DUP3 DUP3 PUSH2 0x30B4 JUMP JUMPDEST SWAP2 POP POP PUSH1 0xC0 DUP4 ADD MLOAD PUSH2 0x31F0 PUSH1 0xC0 DUP7 ADD DUP3 PUSH2 0x3269 JUMP JUMPDEST POP PUSH1 0xE0 DUP4 ADD MLOAD DUP5 DUP3 SUB PUSH1 0xE0 DUP7 ADD MSTORE PUSH2 0x3208 DUP3 DUP3 PUSH2 0x2FCA JUMP JUMPDEST SWAP2 POP POP PUSH2 0x100 DUP4 ADD MLOAD DUP5 DUP3 SUB PUSH2 0x100 DUP7 ADD MSTORE PUSH2 0x3224 DUP3 DUP3 PUSH2 0x2FCA JUMP JUMPDEST SWAP2 POP POP PUSH2 0x120 DUP4 ADD MLOAD DUP5 DUP3 SUB PUSH2 0x120 DUP7 ADD MSTORE PUSH2 0x3240 DUP3 DUP3 PUSH2 0x2FCA JUMP JUMPDEST SWAP2 POP POP PUSH2 0x140 DUP4 ADD MLOAD DUP5 DUP3 SUB PUSH2 0x140 DUP7 ADD MSTORE PUSH2 0x325C DUP3 DUP3 PUSH2 0x2FCA JUMP JUMPDEST SWAP2 POP POP DUP1 SWAP2 POP POP SWAP3 SWAP2 POP POP JUMP JUMPDEST PUSH2 0x3272 DUP2 PUSH2 0x3615 JUMP JUMPDEST DUP3 MSTORE POP POP JUMP JUMPDEST PUSH2 0x3281 DUP2 PUSH2 0x3615 JUMP JUMPDEST DUP3 MSTORE POP POP JUMP JUMPDEST PUSH1 0x0 PUSH1 0x20 DUP3 ADD SWAP1 POP PUSH2 0x329C PUSH1 0x0 DUP4 ADD DUP5 PUSH2 0x2FBB JUMP JUMPDEST SWAP3 SWAP2 POP POP JUMP JUMPDEST PUSH1 0x0 PUSH1 0x20 DUP3 ADD SWAP1 POP DUP2 DUP2 SUB PUSH1 0x0 DUP4 ADD MSTORE PUSH2 0x32BC DUP2 DUP5 PUSH2 0x30ED JUMP JUMPDEST SWAP1 POP SWAP3 SWAP2 POP POP JUMP JUMPDEST PUSH1 0x0 PUSH2 0x100 DUP3 ADD SWAP1 POP DUP2 DUP2 SUB PUSH1 0x0 DUP4 ADD MSTORE PUSH2 0x32DF DUP2 DUP12 PUSH2 0x30ED JUMP JUMPDEST SWAP1 POP DUP2 DUP2 SUB PUSH1 0x20 DUP4 ADD MSTORE PUSH2 0x32F3 DUP2 DUP11 PUSH2 0x303F JUMP JUMPDEST SWAP1 POP DUP2 DUP2 SUB PUSH1 0x40 DUP4 ADD MSTORE PUSH2 0x3307 DUP2 DUP10 PUSH2 0x30ED JUMP JUMPDEST SWAP1 POP DUP2 DUP2 SUB PUSH1 0x60 DUP4 ADD MSTORE PUSH2 0x331B DUP2 DUP9 PUSH2 0x30ED JUMP JUMPDEST SWAP1 POP DUP2 DUP2 SUB PUSH1 0x80 DUP4 ADD MSTORE PUSH2 0x332F DUP2 DUP8 PUSH2 0x303F JUMP JUMPDEST SWAP1 POP DUP2 DUP2 SUB PUSH1 0xA0 DUP4 ADD MSTORE PUSH2 0x3343 DUP2 DUP7 PUSH2 0x30ED JUMP JUMPDEST SWAP1 POP DUP2 DUP2 SUB PUSH1 0xC0 DUP4 ADD MSTORE PUSH2 0x3357 DUP2 DUP6 PUSH2 0x303F JUMP JUMPDEST SWAP1 POP DUP2 DUP2 SUB PUSH1 0xE0 DUP4 ADD MSTORE PUSH2 0x336B DUP2 DUP5 PUSH2 0x303F JUMP JUMPDEST SWAP1 POP SWAP10 SWAP9 POP POP POP POP POP POP POP POP POP JUMP JUMPDEST PUSH1 0x0 PUSH1 0x60 DUP3 ADD SWAP1 POP DUP2 DUP2 SUB PUSH1 0x0 DUP4 ADD MSTORE PUSH2 0x3394 DUP2 DUP7 PUSH2 0x30ED JUMP JUMPDEST SWAP1 POP DUP2 DUP2 SUB PUSH1 0x20 DUP4 ADD MSTORE PUSH2 0x33A8 DUP2 DUP6 PUSH2 0x30ED JUMP JUMPDEST SWAP1 POP DUP2 DUP2 SUB PUSH1 0x40 DUP4 ADD MSTORE PUSH2 0x33BC DUP2 DUP5 PUSH2 0x30ED JUMP JUMPDEST SWAP1 POP SWAP5 SWAP4 POP POP POP POP JUMP JUMPDEST PUSH1 0x0 PUSH1 0x80 DUP3 ADD SWAP1 POP DUP2 DUP2 SUB PUSH1 0x0 DUP4 ADD MSTORE PUSH2 0x33E0 DUP2 DUP8 PUSH2 0x30ED JUMP JUMPDEST SWAP1 POP DUP2 DUP2 SUB PUSH1 0x20 DUP4 ADD MSTORE PUSH2 0x33F4 DUP2 DUP7 PUSH2 0x30ED JUMP JUMPDEST SWAP1 POP DUP2 DUP2 SUB PUSH1 0x40 DUP4 ADD MSTORE PUSH2 0x3408 DUP2 DUP6 PUSH2 0x30ED JUMP JUMPDEST SWAP1 POP PUSH2 0x3417 PUSH1 0x60 DUP4 ADD DUP5 PUSH2 0x2FBB JUMP JUMPDEST SWAP6 SWAP5 POP POP POP POP POP JUMP JUMPDEST PUSH1 0x0 PUSH1 0x80 DUP3 ADD SWAP1 POP DUP2 DUP2 SUB PUSH1 0x0 DUP4 ADD MSTORE PUSH2 0x343A DUP2 DUP8 PUSH2 0x30ED JUMP JUMPDEST SWAP1 POP DUP2 DUP2 SUB PUSH1 0x20 DUP4 ADD MSTORE PUSH2 0x344E DUP2 DUP7 PUSH2 0x30ED JUMP JUMPDEST SWAP1 POP DUP2 DUP2 SUB PUSH1 0x40 DUP4 ADD MSTORE PUSH2 0x3462 DUP2 DUP6 PUSH2 0x30ED JUMP JUMPDEST SWAP1 POP DUP2 DUP2 SUB PUSH1 0x60 DUP4 ADD MSTORE PUSH2 0x3476 DUP2 DUP5 PUSH2 0x30ED JUMP JUMPDEST SWAP1 POP SWAP6 SWAP5 POP POP POP POP POP JUMP JUMPDEST PUSH1 0x0 PUSH1 0x60 DUP3 ADD SWAP1 POP DUP2 DUP2 SUB PUSH1 0x0 DUP4 ADD MSTORE PUSH2 0x349B DUP2 DUP7 PUSH2 0x30ED JUMP JUMPDEST SWAP1 POP DUP2 DUP2 SUB PUSH1 0x20 DUP4 ADD MSTORE PUSH2 0x34AF DUP2 DUP6 PUSH2 0x30ED JUMP JUMPDEST SWAP1 POP PUSH2 0x34BE PUSH1 0x40 DUP4 ADD DUP5 PUSH2 0x3278 JUMP JUMPDEST SWAP5 SWAP4 POP POP POP POP JUMP JUMPDEST PUSH1 0x0 PUSH1 0x20 DUP3 ADD SWAP1 POP DUP2 DUP2 SUB PUSH1 0x0 DUP4 ADD MSTORE PUSH2 0x34DF DUP2 PUSH2 0x3126 JUMP JUMPDEST SWAP1 POP SWAP2 SWAP1 POP JUMP JUMPDEST PUSH1 0x0 PUSH1 0x20 DUP3 ADD SWAP1 POP DUP2 DUP2 SUB PUSH1 0x0 DUP4 ADD MSTORE PUSH2 0x3500 DUP2 DUP5 PUSH2 0x3149 JUMP JUMPDEST SWAP1 POP SWAP3 SWAP2 POP POP JUMP JUMPDEST PUSH1 0x0 PUSH2 0x3512 PUSH2 0x3523 JUMP JUMPDEST SWAP1 POP PUSH2 0x351E DUP3 DUP3 PUSH2 0x3693 JUMP JUMPDEST SWAP2 SWAP1 POP JUMP JUMPDEST PUSH1 0x0 PUSH1 0x40 MLOAD SWAP1 POP SWAP1 JUMP JUMPDEST PUSH1 0x0 PUSH8 0xFFFFFFFFFFFFFFFF DUP3 GT ISZERO PUSH2 0x3548 JUMPI PUSH2 0x3547 PUSH2 0x36F3 JUMP JUMPDEST JUMPDEST PUSH2 0x3551 DUP3 PUSH2 0x3736 JUMP JUMPDEST SWAP1 POP PUSH1 0x20 DUP2 ADD SWAP1 POP SWAP2 SWAP1 POP JUMP JUMPDEST PUSH1 0x0 DUP2 SWAP1 POP PUSH1 0x20 DUP3 ADD SWAP1 POP SWAP2 SWAP1 POP JUMP JUMPDEST PUSH1 0x0 DUP2 MLOAD SWAP1 POP SWAP2 SWAP1 POP JUMP JUMPDEST PUSH1 0x0 DUP2 MLOAD SWAP1 POP SWAP2 SWAP1 POP JUMP JUMPDEST PUSH1 0x0 PUSH1 0x20 DUP3 ADD SWAP1 POP SWAP2 SWAP1 POP JUMP JUMPDEST PUSH1 0x0 DUP3 DUP3 MSTORE PUSH1 0x20 DUP3 ADD SWAP1 POP SWAP3 SWAP2 POP POP JUMP JUMPDEST PUSH1 0x0 DUP3 DUP3 MSTORE PUSH1 0x20 DUP3 ADD SWAP1 POP SWAP3 SWAP2 POP POP JUMP JUMPDEST PUSH1 0x0 DUP3 DUP3 MSTORE PUSH1 0x20 DUP3 ADD SWAP1 POP SWAP3 SWAP2 POP POP JUMP JUMPDEST PUSH1 0x0 DUP3 DUP3 MSTORE PUSH1 0x20 DUP3 ADD SWAP1 POP SWAP3 SWAP2 POP POP JUMP JUMPDEST PUSH1 0x0 PUSH2 0x35E0 DUP3 PUSH2 0x35F5 JUMP JUMPDEST SWAP1 POP SWAP2 SWAP1 POP JUMP JUMPDEST PUSH1 0x0 PUSH2 0xFFFF DUP3 AND SWAP1 POP SWAP2 SWAP1 POP JUMP JUMPDEST PUSH1 0x0 PUSH20 0xFFFFFFFFFFFFFFFFFFFFFFFFFFFFFFFFFFFFFFFF DUP3 AND SWAP1 POP SWAP2 SWAP1 POP JUMP JUMPDEST PUSH1 0x0 DUP2 SWAP1 POP SWAP2 SWAP1 POP JUMP JUMPDEST DUP3 DUP2 DUP4 CALLDATACOPY PUSH1 0x0 DUP4 DUP4 ADD MSTORE POP POP POP JUMP JUMPDEST PUSH1 0x0 JUMPDEST DUP4 DUP2 LT ISZERO PUSH2 0x364C JUMPI DUP1 DUP3 ADD MLOAD DUP2 DUP5 ADD MSTORE PUSH1 0x20 DUP2 ADD SWAP1 POP PUSH2 0x3631 JUMP JUMPDEST DUP4 DUP2 GT ISZERO PUSH2 0x365B JUMPI PUSH1 0x0 DUP5 DUP5 ADD MSTORE JUMPDEST POP POP POP POP JUMP JUMPDEST PUSH1 0x0 PUSH1 0x2 DUP3 DIV SWAP1 POP PUSH1 0x1 DUP3 AND DUP1 PUSH2 0x3679 JUMPI PUSH1 0x7F DUP3 AND SWAP2 POP JUMPDEST PUSH1 0x20 DUP3 LT DUP2 EQ ISZERO PUSH2 0x368D JUMPI PUSH2 0x368C PUSH2 0x36C4 JUMP JUMPDEST JUMPDEST POP SWAP2 SWAP1 POP JUMP JUMPDEST PUSH2 0x369C DUP3 PUSH2 0x3736 JUMP JUMPDEST DUP2 ADD DUP2 DUP2 LT PUSH8 0xFFFFFFFFFFFFFFFF DUP3 GT OR ISZERO PUSH2 0x36BB JUMPI PUSH2 0x36BA PUSH2 0x36F3 JUMP JUMPDEST JUMPDEST DUP1 PUSH1 0x40 MSTORE POP POP POP JUMP JUMPDEST PUSH32 0x4E487B7100000000000000000000000000000000000000000000000000000000 PUSH1 0x0 MSTORE PUSH1 0x22 PUSH1 0x4 MSTORE PUSH1 0x24 PUSH1 0x0 REVERT JUMPDEST PUSH32 0x4E487B7100000000000000000000000000000000000000000000000000000000 PUSH1 0x0 MSTORE PUSH1 0x41 PUSH1 0x4 MSTORE PUSH1 0x24 PUSH1 0x0 REVERT JUMPDEST PUSH1 0x0 DUP1 REVERT JUMPDEST PUSH1 0x0 DUP1 REVERT JUMPDEST PUSH1 0x0 DUP1 REVERT JUMPDEST PUSH1 0x0 DUP1 REVERT JUMPDEST PUSH1 0x0 PUSH1 0x1F NOT PUSH1 0x1F DUP4 ADD AND SWAP1 POP SWAP2 SWAP1 POP JUMP JUMPDEST PUSH32 0x5265656E7472616E637947756172643A207265656E7472616E742063616C6C00 PUSH1 0x0 DUP3 ADD MSTORE POP JUMP JUMPDEST PUSH2 0x3779 DUP2 PUSH2 0x35D5 JUMP JUMPDEST DUP2 EQ PUSH2 0x3784 JUMPI PUSH1 0x0 DUP1 REVERT JUMPDEST POP JUMP JUMPDEST PUSH2 0x3790 DUP2 PUSH2 0x35E7 JUMP JUMPDEST DUP2 EQ PUSH2 0x379B JUMPI PUSH1 0x0 DUP1 REVERT JUMPDEST POP JUMP JUMPDEST PUSH2 0x37A7 DUP2 PUSH2 0x3615 JUMP JUMPDEST DUP2 EQ PUSH2 0x37B2 JUMPI PUSH1 0x0 DUP1 REVERT JUMPDEST POP JUMP INVALID LOG2 PUSH5 0x6970667358 0x22 SLT KECCAK256 MSTORE CALLER 0xEA PUSH31 0xE1EDFC2663C81A782180340760E945BB0D7705A5E376A326C0128DEF64736F PUSH13 0x63430008070033000000000000 "},"gasEstimates":{"creation":{"codeDepositCost":"2863000","executionCost":"infinite","totalCost":"infinite"},"external":{"addDoctorDetails(address,string,string,uint256,string,address)":"infinite","addHospitalDetails(address,string,string,string,string)":"infinite","addPatientDetails(address,uint16,string)":"infinite","getDoctorDetails(address)":"infinite","getHospitalDetails(address)":"infinite","getMyDetails()":"infinite","getOwner()":"infinite","getPatientDetails(address)":"infinite","getPublicKey(address)":"infinite","registerPatient(address,string,uint256,string,string,string)":"infinite"}},"methodIdentifiers":{"addDoctorDetails(address,string,string,uint256,string,address)":"b2d5bced","addHospitalDetails(address,string,string,string,string)":"a8c62ea9","addPatientDetails(address,uint16,string)":"7f0bbba9","getDoctorDetails(address)":"bab90dbd","getHospitalDetails(address)":"0bb307a8","getMyDetails()":"431bbb7e","getOwner()":"893d20e8","getPatientDetails(address)":"efe2ccc1","getPublicKey(address)":"857cdbb8","registerPatient(address,string,uint256,string,string,string)":"44bba6aa"}},"storageLayout":{"storage":[{"astId":10,"contract":"contracts/PatientMedicalRecordSystem.sol:PatientMedicalRecordSystem","label":"_status","offset":0,"slot":"0","type":"t_uint256"},{"astId":95,"contract":"contracts/PatientMedicalRecordSystem.sol:PatientMedicalRecordSystem","label":"s_patients","offset":0,"slot":"1","type":"t_mapping(t_address,t_struct(Patient)783_storage)"},{"astId":100,"contract":"contracts/PatientMedicalRecordSystem.sol:PatientMedicalRecordSystem","label":"s_doctors","offset":0,"slot":"2","type":"t_mapping(t_address,t_struct(Doctor)54_storage)"},{"astId":105,"contract":"contracts/PatientMedicalRecordSystem.sol:PatientMedicalRecordSystem","label":"s_hospitals","offset":0,"slot":"3","type":"t_mapping(t_address,t_struct(Hospital)70_storage)"},{"astId":109,"contract":"contracts/PatientMedicalRecordSystem.sol:PatientMedicalRecordSystem","label":"s_addressToPublicKey","offset":0,"slot":"4","type":"t_mapping(t_address,t_string_storage)"}],"types":{"t_address":{"encoding":"inplace","label":"address","numberOfBytes":"20"},"t_array(t_string_storage)dyn_storage":{"base":"t_string_storage","encoding":"dynamic_array","label":"string[]","numberOfBytes":"32"},"t_mapping(t_address,t_string_storage)":{"encoding":"mapping","key":"t_address","label":"mapping(address => string)","numberOfBytes":"32","value":"t_string_storage"},"t_mapping(t_address,t_struct(Doctor)54_storage)":{"encoding":"mapping","key":"t_address","label":"mapping(address => struct DoctorType.Doctor)","numberOfBytes":"32","value":"t_struct(Doctor)54_storage"},"t_mapping(t_address,t_struct(Hospital)70_storage)":{"encoding":"mapping","key":"t_address","label":"mapping(address => struct HospitalType.Hospital)","numberOfBytes":"32","value":"t_struct(Hospital)70_storage"},"t_mapping(t_address,t_struct(Patient)783_storage)":{"encoding":"mapping","key":"t_address","label":"mapping(address => struct PatientType.Patient)","numberOfBytes":"32","value":"t_struct(Patient)783_storage"},"t_string_storage":{"encoding":"bytes","label":"string","numberOfBytes":"32"},"t_struct(Doctor)54_storage":{"encoding":"inplace","label":"struct DoctorType.Doctor","members":[{"astId":43,"contract":"contracts/PatientMedicalRecordSystem.sol:PatientMedicalRecordSystem","label":"doctorAddress","offset":0,"slot":"0","type":"t_address"},{"astId":45,"contract":"contracts/PatientMedicalRecordSystem.sol:PatientMedicalRecordSystem","label":"name","offset":0,"slot":"1","type":"t_string_storage"},{"astId":47,"contract":"contracts/PatientMedicalRecordSystem.sol:PatientMedicalRecordSystem","label":"doctorRegistrationId","offset":0,"slot":"2","type":"t_string_storage"},{"astId":49,"contract":"contracts/PatientMedicalRecordSystem.sol:PatientMedicalRecordSystem","label":"dateOfRegistration","offset":0,"slot":"3","type":"t_uint256"},{"astId":51,"contract":"contracts/PatientMedicalRecordSystem.sol:PatientMedicalRecordSystem","label":"specialization","offset":0,"slot":"4","type":"t_string_storage"},{"astId":53,"contract":"contracts/PatientMedicalRecordSystem.sol:PatientMedicalRecordSystem","label":"hospitalAddress","offset":0,"slot":"5","type":"t_address"}],"numberOfBytes":"192"},"t_struct(Hospital)70_storage":{"encoding":"inplace","label":"struct HospitalType.Hospital","members":[{"astId":59,"contract":"contracts/PatientMedicalRecordSystem.sol:PatientMedicalRecordSystem","label":"name","offset":0,"slot":"0","type":"t_string_storage"},{"astId":61,"contract":"contracts/PatientMedicalRecordSystem.sol:PatientMedicalRecordSystem","label":"hospitalAddress","offset":0,"slot":"1","type":"t_address"},{"astId":63,"contract":"contracts/PatientMedicalRecordSystem.sol:PatientMedicalRecordSystem","label":"dateOfRegistration","offset":0,"slot":"2","type":"t_uint256"},{"astId":65,"contract":"contracts/PatientMedicalRecordSystem.sol:PatientMedicalRecordSystem","label":"hospitalRegistrationId","offset":0,"slot":"3","type":"t_string_storage"},{"astId":67,"contract":"contracts/PatientMedicalRecordSystem.sol:PatientMedicalRecordSystem","label":"email","offset":0,"slot":"4","type":"t_string_storage"},{"astId":69,"contract":"contracts/PatientMedicalRecordSystem.sol:PatientMedicalRecordSystem","label":"phoneNumber","offset":0,"slot":"5","type":"t_string_storage"}],"numberOfBytes":"192"},"t_struct(Patient)783_storage":{"encoding":"inplace","label":"struct PatientType.Patient","members":[{"astId":758,"contract":"contracts/PatientMedicalRecordSystem.sol:PatientMedicalRecordSystem","label":"name","offset":0,"slot":"0","type":"t_string_storage"},{"astId":760,"contract":"contracts/PatientMedicalRecordSystem.sol:PatientMedicalRecordSystem","label":"patientAddress","offset":0,"slot":"1","type":"t_address"},{"astId":762,"contract":"contracts/PatientMedicalRecordSystem.sol:PatientMedicalRecordSystem","label":"dob","offset":0,"slot":"2","type":"t_uint256"},{"astId":764,"contract":"contracts/PatientMedicalRecordSystem.sol:PatientMedicalRecordSystem","label":"phoneNumber","offset":0,"slot":"3","type":"t_string_storage"},{"astId":766,"contract":"contracts/PatientMedicalRecordSystem.sol:PatientMedicalRecordSystem","label":"bloodGroup","offset":0,"slot":"4","type":"t_string_storage"},{"astId":768,"contract":"contracts/PatientMedicalRecordSystem.sol:PatientMedicalRecordSystem","label":"publicKey","offset":0,"slot":"5","type":"t_string_storage"},{"astId":770,"contract":"contracts/PatientMedicalRecordSystem.sol:PatientMedicalRecordSystem","label":"dateOfRegistration","offset":0,"slot":"6","type":"t_uint256"},{"astId":773,"contract":"contracts/PatientMedicalRecordSystem.sol:PatientMedicalRecordSystem","label":"vaccinationHash","offset":0,"slot":"7","type":"t_array(t_string_storage)dyn_storage"},{"astId":776,"contract":"contracts/PatientMedicalRecordSystem.sol:PatientMedicalRecordSystem","label":"accidentHash","offset":0,"slot":"8","type":"t_array(t_string_storage)dyn_storage"},{"astId":779,"contract":"contracts/PatientMedicalRecordSystem.sol:PatientMedicalRecordSystem","label":"chronicHash","offset":0,"slot":"9","type":"t_array(t_string_storage)dyn_storage"},{"astId":782,"contract":"contracts/PatientMedicalRecordSystem.sol:PatientMedicalRecordSystem","label":"acuteHash","offset":0,"slot":"10","type":"t_array(t_string_storage)dyn_storage"}],"numberOfBytes":"352"},"t_uint256":{"encoding":"inplace","label":"uint256","numberOfBytes":"32"}}},"userdoc":{"kind":"user","methods":{},"version":1}}}}